:020000040804EE
:104000002400170A01F0FABC0000000000000000C4
:104010000000000001F03EBD01F05DBD01F072BD89
:1040200001F086BD01F0A6BD01F0BCBD000000009E
:104030000000000000000000000000000000000080
:104040000000000000000000000000000000000070
:1040500000F0A4BD00F029BE00F0D9BF00F0D0BF31
:1040600001F05DB801F090B801F0B6B800F0C4BE40
:1040700001F0D0B801F030B900F096BF01F072B98C
:1040800001F0C0B901F076BA01F098BA01F0B6BA01
:1040900000F0FEB9F0B522F003040D1F93080619D5
:1040A000B04209D121446FF0030404FB032201381C
:1040B0000A44914205D1F0BD55F8047F40F8047BD5
:1040C000EEE711F8013B00F8013FF2E730B5026975
:1040D00001F109033AB3426901F11105541E14F8C4
:1040E000010F202806D0052808BFE52003F8010BA2
:1040F000AB42F4D1107A20280DD018462E24D51DBD
:1041000000F8044B013315F8014F202C03D003F8BD
:10411000014B8342F7D1D07A0872D0690860108BC6
:104120008880D28ACA8000221A7030BD08B5036820
:104130006BB11A785AB1D9888288914207D15878E0
:1041400001F0A2FB10F0010018BF032008BD0920F8
:10415000FCE72DE9F041C66A04468E420D4602D1C5
:104160000020BDE8F08103795BB9002DF8D0012370
:104170002A46607804F1300101F08AFB50B9E5620B
:10418000EFE700F13008012332464146407801F064
:1041900099FB08B10120E4E7D4E907231344B342B3
:1041A0002071E2D9E778012FDFD9E36941461E4447
:1041B000324601236078013F01F084FBFFB2F2E751
:1041C00010B50A46044600F130010123407801F0A1
:1041D0005FFBA0B94AF65523B4F82E229A4210D1BB
:1041E000D4F86630084A23F07F43934206D0D4F8CF
:1041F000820020F07F40801A18BF012010BD0320EC
:10420000FCE70220FAE700BF464154002DE9F047E1
:10421000036815461A780446303A092A17D900234C
:104220000B607B4B1C689846002C00F0ED800C6006
:104230002378BBB1607801F027FBC70712D41DB10A
:1042400010F0040500D00A252846BDE8F08758780C
:104250003A28E4D10233236000230B60002AE0D027
:104260000B25F1E70020208001F0D0FAC60700F10D
:10427000CD800DB14107E6D40221607804F10A0235
:1042800001F056FB064608B10125DDE70146204650
:10429000FFF796FF012805460BD194F8F2310BB9D0
:1042A0000D25D1E7D4F8F66120463146FFF788FFA7
:1042B0000546032DE8D0002DF2D1B4F80AC0B4F8B9
:1042C0003B306345ECD1B4F8460000B9606D94F81A
:1042D00040E0E0610EF1FF33012B84F803E0DFD80A
:1042E00094F83D70A770002FDAD07B1E3B42D7D1E7
:1042F000B4F841904FEA5C13B9FBF3F203FB12935D
:104300009BB2A4F80890002BCAD1B4F8433003B98B
:10431000236DE18F0029C3D000FB0EFE0A447244D6
:104320009342BDD39B1ABB42B3FBF7FAB8D340F616
:10433000F5739A4553D94FF6F577BA4594BF0227DE
:1043400003270AF1020332443144032FA361A2621E
:10435000216246D1B9F1000FA2D1E26D9B006262E9
:104360000CF1FF321344B3FBFCFC844598D80023C6
:104370004FF0FF32032FC4E9033224D1B4F8602098
:104380006371324401236078626104F1300101F00D
:104390007FFAC0B94AF65523B4F82E229A4212D1B8
:1043A000226B1C4B9A420ED103F1FF53D4F8142216
:1043B00003F5005320339A4201BFD4F81C32E36066
:1043C000D4F818322361B8F80430277001339BB257
:1043D000A8F80430E3800023E362237134E7012767
:1043E000AFE7B9F1000F3FF45BAF022F4FEA430292
:1043F00018BFD218714414BF03F001031346616261
:1044000018BF03EB5203ABE70C251DE703251BE7A1
:1044100004EC00205252614110B500210446FFF720
:1044200098FE034670BB2278032A23D162790AB32F
:1044300004F130010A46E06204F50C70904222D18A
:104440004AF65523A4F82E32104B6269236303F118
:10445000FF5303F500532033C4F814322369607806
:10446000C4F81832E368C4F81C32012301F02AFAB8
:104470000023637100226078114601F059FA003878
:1044800018BF012010BD02F8013BD7E7525261412D
:1044900010B50446FFF7C0FF2046BDE810400121DB
:1044A00057E683690239023B8B4283BF8378806A77
:1044B00001FB0300002070470129F8B504460D46B2
:1044C00060D983698B425DD90378022B32D0032BEC
:1044D00043D0012B09D1438901EB5107B7FBF3F31B
:1044E000016A1944FFF735FE10B14FF0FF3020E0AC
:1044F00061892046B7FBF1F301FB13730137B7FB6A
:10450000F1F1234493F83060236A1944FFF721FE48
:104510000028EAD16389B7FBF3F003FB10773C4432
:1045200094F83000EB0746EA00204CBF0009C0F3C6
:104530000B00F8BD43895B08B1FBF3F3016A194432
:10454000FFF707FE0028D0D169006589B1FBF5F0BF
:1045500005FB10152C44208EEBE743899B08B1FB2B
:10456000F3F3016A1944FFF7F4FD0028BDD1618916
:10457000AD00B5FBF1F001FB10552C44206B20F091
:104580007040D6E70120D4E770B50D46C180816840
:104590000446012901D1022070BD03689A698A424C
:1045A000F9D9F9B91A78032A01D1596AD1B9002287
:1045B000E2601A89AA42EED95A895B6A5209B5FBB0
:1045C000F2F2134423612368002003F130025B8977
:1045D0005B09B5FBF3F103FB1155ADB202EB4515D9
:1045E0006561D9E75E8972099E785643B6B2B542D5
:1045F000226809D21046E160FFF753FF53895B0937
:10460000B5FBF3F30344DDE71046FFF755FF431C0A
:10461000014608D00128BED923689B698342BAD9D4
:10462000AD1BADB2E3E70120B6E710B5C188044683
:10463000FFF7AAFF50B921692068FFF78AFD28B962
:10464000E52263691A70012223681A7110BD0129DD
:104650002DE9F04104460D46164677D983698B4211
:1046600074D90378022B45D0032B56D0012B6BD184
:10467000438901EB5108B8FBF3F3016A1944FFF7D2
:1046800068FD58BB618915F00105B8FBF1F301FB2A
:104690001383234417BF93F83020F2B202F00F00C7
:1046A00032011CBF02F0F002024383F830200123E4
:1046B00008F10108B8FBF1F12371236A204619447F
:1046C000FFF747FD50B96389B8FBF3F703FB178782
:1046D00027443DB1C6F3071687F8306001232371E4
:1046E000BDE8F08197F83030C6F3032623F00F03BE
:1046F0001E43F1E743895B08B1FBF3F3016A1944F8
:10470000FFF727FD0028E9D163896900B1FBF3F5C4
:1047100003FB151525442E86E0E743899B08B1FB72
:10472000F3F3016A1944FFF714FD0028D6D1638919
:10473000AD00B5FBF3F103FB11553035625902F0C2
:10474000704216436651C9E70220C7E70220C7E757
:10475000F8B505460F4671B9C668CEB183699E4269
:1047600028BF01263446AB690134A34213D8012E79
:1047700010D8002405E0FFF79FFE0128044602D868
:1047800001242046F8BDAB698342FAD83E46E9E7EA
:104790000126E7E7022421462846FFF78DFE30B1C7
:1047A000411C1ED00128EBD0B442DCD1E1E76FF010
:1047B000704221462846FFF74AFF80B947B92B6966
:1047C000EC605A1CDDD0013B2B6101236B71D8E7F3
:1047D000224639462846FFF73AFF0028EFD0012845
:1047E000CED14FF0FF34CCE72DE9F041C688044626
:1047F0000136B6B20F4616B90420BDE8F081026951
:10480000002AF9D0006843895909B6FBF1F301FB8E
:1048100013639BB233B9E1680132226191B9038914
:10482000B342E9D92368E6805A8903F1300152097D
:10483000B6FBF2F302FB1366B6B201EB461600209C
:104840006661DAE7438982785B09B6FBF3F3013AE4
:104850001342E7D1FFF730FE0128054601D80220B8
:10486000CBE7421C01D10120C7E720688369AB4236
:1048700028D8002FC0D0E168FFF76AFF054600285E
:1048800038D00128EBD0431CEDD000212068FFF781
:1048900060FC0028E7D1236803F130025B89013B0B
:1048A00017D2226829461046FFF7FBFD00274FF07C
:1048B0000108D0622368F9B29A788A420CD8DA6A81
:1048C000521ADA6229462068E560FFF7EAFD2061A6
:1048D000A8E702F8010BE2E783F8048000212068D2
:1048E000FFF737FC01370028BDD12268D36A0133B6
:1048F000D362DFE7072080E72DE9F8430B78044611
:104900002F2B0E4601D05C2B00D101360025A5606F
:1049100033781F2B2FD92025334613F8012B2F2A4C
:1049200030D05C2A2ED0A7693B4607F10B02934298
:104930002AD100204FF0080C034606F1FF3EC6F1D5
:10494000020909EB0E011EF8012F202A24D92F2A73
:1049500022D05C2A20D02E2A7BD0844509D911068A
:1049600007D4DFF81C8118F8011B00297AD08A428D
:10497000F9D1062004E029462046FFF705FE6561CF
:10498000BDE8F8831E46C7E703F8015BCFE743F0B5
:1049900002033A540130D4E7212A34BF0422002212
:1049A0000E440028E5D03978E52904BF0521397087
:1049B000BCF1080F29D19B00DBB203F00C03042BE0
:1049C00008BF42F0080200212046FA72FFF7DCFD22
:1049D00018BB21692068FFF7BCFBF0B963691A783E
:1049E000D2B1D87A10F008000AD1A26903F10B0CF9
:1049F000634512D013F8017B12F8011B8F42F7D0E8
:104A000000212046FFF7F0FEE2E703F00301012951
:104A100008BF42F01002D0E70420A369DB7A30B16E
:104A20000428ADD113F0040F08BF0520A8E75A07EA
:104A3000A6D46269D37ADB0609D52168538B09783D
:104A4000032904BF928A43EA0243A36064E7052076
:104A500096E7BCF1080F8CD19B006046DBB24FF0AB
:104A60000B0C6EE7A2F14101192990D9A2F1610165
:104A700019299EBF203A43F00103D2B289E700BF53
:104A8000C45B040838B500210546FFF77DFD0446E8
:104A900030BB29692868FFF75CFB044600BB6B69E3
:104AA0001B78E52B08D03BB101212846FFF79CFE7F
:104AB000EDE703F8011B0AE029692868FFF749FBC5
:104AC000044668B968692146034600F120029A420B
:104AD000EFD10B22A969FFF7DDFA01222B681A71C9
:104AE000204638BD10B504460420216909B970B1CB
:104AF00015E02068FFF72DFB88B9626913788BB148
:104B0000E52B06D02E2B04D0D37A1B0701D400202E
:104B100010BD00212046FFF767FE0028E5D00023E6
:104B20002361F5E70420FAE70129F8B505460C46AC
:104B300022D983698B421FD9012721462846FFF7D6
:104B4000BBFC2646044608B90020F8BD012813D056
:104B5000411C13D0002231462846FFF778FD00287B
:104B6000F3D12B695A1C1CBF01332B61AB6918BFF1
:104B70006F719C42E1D3E7E70220E6E70120E4E71A
:104B800040B9054B1A6802B1107009B100220A70D1
:104B9000196070470B20704704EC00202DE9F041AC
:104BA0008CB0164604460191002878D0002302F00C
:104BB0001E02036005A901A8FFF728FBB0B902ABEC
:104BC000019905A80B93FFF797FE0A9D10B9002DD8
:104BD00008BF062016F01C0F06F01F0754D040B186
:104BE000042803D105A8FFF74DFF58B10CB0BDE86C
:104BF000F081EB7A13F0110F4FD1710751D43307C5
:104C000028D502E00A9D47F0080700F0B7FE002310
:104C1000C5F80E000598EB72EB6102786E8B032AE3
:104C200008BFAA8A6B83AB824FF0010308BF46EA34
:104C30000246037176B13146D0F82C80FFF774FF3D
:104C40000028D3D10598013E4146C660FFF781FA9E
:104C50000028CBD10020059B3A07DA6A48BF47F00D
:104C60002007C4E90725A77119786A8B032904BFB7
:104C7000A98A42EA01422261EA69A060E260A06179
:104C80002360DB88A380B1E70028AFD1EB7ADA0696
:104C900009D4B007DED5D907DCD50720A6E709205F
:104CA000A4E70820A2E70420A0E72DE9F74F9A46E1
:104CB0000023CAF80030044688461546FFF736FA46
:104CC0000646002836D194F9063094F80690002B59
:104CD00021DB19F0010900F08D80D4E90227BF1A09
:104CE000AF4228BF2F462FB32068A1684289B1FB8D
:104CF000F2F502FB1512002A5ED18378013B2B40AE
:104D000013F0FF031BD141B9206901280BD8A37907
:104D100063F07F03A37102260CE061690193FFF742
:104D2000CBFB019BF1E7421C08D14E46A37963F00F
:104D30007F03A371304603B0BDE8F08F6061D4F803
:104D400000B0616958460193FFF7ABFB019B002857
:104D5000DDD0BBF80A501A18BD422CD8B7FBF5F5C8
:104D60009BF802105819884288BFCD1A9BF80100A1
:104D70004146EBB2019200F08BFD019A0028D4D19C
:104D800021680B794BB1C86A801AA84205D24A89BA
:104D9000303102FB0080FFF77DF923685A895543C3
:104DA000A368A8442B44A360DAF800307F1B2B448F
:104DB000CAF8003097E7A2612068A3684589A16915
:104DC000B3FBF5F205FB1232AD1ABD4228BF3D46DA
:104DD000FFF7BFF90028A8D12168A0684A89B0FB75
:104DE000F2F302FB130330332A4640461944FFF71F
:104DF00051F9D5E707269DE72DE9F74F9A4600239D
:104E0000CAF80030044689461746FFF78FF9054671
:104E100008BB94F90620A379002AC0F28A809A0779
:104E200040F1C080E368FB4263D3D4E9023293428D
:104E300000F2B680A37943F02003A3710BE061690F
:104E4000FFF786FC01466CE04B1C08D10125A379D5
:104E500063F07F03A371284603B0BDE8F08F616162
:104E60002068A369C26A9A4204D10021FFF771F950
:104E70000028EBD1D4F800B061695846FFF711FB68
:104E8000002852D0BBF80A803218B84553D8B7FB77
:104E9000F8F89BF8023006EB0801994288BFA3EBB3
:104EA000060849469BF801005FFA88F3019200F07A
:104EB00009FD019A06460028C8D12068C16A891AEE
:104EC000414507D24289303002FB0191FFF7E2F8F9
:104ED00023681E7123685A8908FB02F8A368C1443D
:104EE0004344A360DAF80030A7EB08074344CAF84C
:104EF0000030A268002F98D020684389B2FBF3F1FC
:104F000003FB11233BBB8678013E0E4016F0FF06E3
:104F1000A6D1002A93D1216929B9FFF719FC0146CE
:104F20002061002981D001298ED1A37963F07F030C
:104F3000A37102258FE7D4E9021399420AD3002115
:104F400058460192FFF705F9019A00287FF47EAFD9
:104F50002368DA62A2612068A368B0F80A80A169B8
:104F6000B3FBF8F208FB1232A8EB0208B84528BFE1
:104F7000B846FFF7EEF800287FF468AF2068A16814
:104F80004289B1FBF2F302FB13133033424618445B
:104F90004946FFF77FF84FF0010223681A719DE739
:104FA000E36047E7072556E770B50446FFF7BEF80C
:104FB00028BBA07910F0200021D0E1692068FFF71C
:104FC000C8F80646D8B9256AEB7A43F02003EB729D
:104FD000E368EB6123696B831B0CAB8200F0CEFCB2
:104FE0000122C5F816006E82A37923F02003A37175
:104FF00023681A712068BDE87040FFF70DBA70BDD4
:1050000010B50446FFF7D0FF00B9206010BDF8B519
:1050100004460D46FFF78AF80646002860D194F949
:105020000630A279002B52DBE368AB4203D212F0C8
:10503000020F08BF1D460022A368A260ADB9002080
:105040002268A3685189B3FBF1F201FB12321AB155
:10505000A269824218BFA061E268934240D9E3602E
:10506000A37943F02003A3713AE02068827847894E
:1050700057430BB3013B6A1EB2FBF7F2B3FBF7F1E8
:105080008A4219D37A4213406169A360ED1A00295C
:10509000D5D0BD42206828D8A36820682B44A360DF
:1050A0004389B5FBF3F203FB1255002DC7D0FFF780
:1050B000F8F940B11044C3E72169A1B9FFF748FBF3
:1050C0000128014605D1A37963F07F03A37102266D
:1050D00006E0481C06D10126A37963F07F03A37183
:1050E0003046F8BD21616161D1E7A3799A0705D502
:1050F000FFF72EFB014620B93D46CDE7FFF7DCF96F
:1051000001464B1CE7D00129DDD923689B698B42FE
:10511000D9D9A36861613B44A360ED1BB9E730B501
:1051200087B00446019150B30146002201A8FFF761
:105130006DF868B903AB20460199A3612568FFF7B4
:10514000DBFBF0B9636973B1DA7AD20603D40520C8
:105150000023236011E029785A8B032904BF9B8A1E
:1051600042EA0342A260EB8800212046A380FFF7B9
:105170000BFA0428EBD00028EAD107B030BD092093
:10518000FBE70428E3D0E3E77FB505460E46FEF7CC
:10519000CDFF0446D0B92EB901462846FFF7F4F9F1
:1051A000044613E001AB2846AB61FFF79BFC0428E3
:1051B0000FD12C6131462846FEF788FF0021284692
:1051C000FFF712FB0428EBD100232B61204604B02B
:1051D00070BD0028E4D1EDE730B58DB001900D46EB
:1051E000002205A901A8FFF711F8044668B902AB2F
:1051F000019905A80B93FFF77FFB044628B90A9B8A
:1052000033B1294605A8FEF761FF20460DB030BD39
:105210000624FAE72DE9F347154601900F460022D0
:10522000294601A8FEF7F2FF044640B92D68D5F8DB
:1052300018902B69A9F10202934204D83B602046E2
:1052400002B0BDE8F08795F80080B8F1010F1AD1DF
:105250004FF00209064649462846FFF72DF9431C40
:1052600034D0012834D000B90136AB6909F1010905
:105270004B45F0D8B8F1030F08BF01232E6108BFDA
:105280006B713E60DBE7034602460646296A4AB96F
:10529000284601F1010AFEF75CFFD8B951466A8938
:1052A00005F13003B8F1020F08D1188800B90136B2
:1052B0000233023AB9F10109E9D1DBE71868043A8F
:1052C00030F0704008BF01360433F3E70124D1E722
:1052D0000224CFE70446CDE770B5044650B3FEF78D
:1052E00025FF0546A8B994F90620A379002A23DBF7
:1052F0009A0723D5D4E9022191420AD943F0200329
:105300002068E260A37132B92169FFF70DFC2561C5
:1053100040B9284670BD6169FFF7CEF8431C0646C8
:105320000ED10120A379054663F07F03A371F0E756
:105330000220F7E70925ECE70225EAE70725E8E779
:105340000128F5D020688369B342E2D96FF070423A
:105350006169FFF77CF90028E4D131462068FFF746
:10536000E3FBD5E710B594B00190012206A901A88E
:10537000FEF74CFFE8B903AB019906A80C93FFF7C1
:10538000BBFAB0B90B9BB3B1D87A10F0010018BFCB
:105390000720069A5C8B1278032A04BF9A8A44EA93
:1053A000024430B9DB7ADB0607D406A8FFF73DF9E3
:1053B000C0B114B010BD0620EBE7012C1ED906A920
:1053C0000DA81C22FEF766FE02210DA80F94FFF720
:1053D000DBF80028EDD10DA8FFF784FB80B104288D
:1053E000E7D1E2E71CB90698FFF716F8E1E7214696
:1053F0000698FFF799FB0028DBD1F4E70220D8E7F5
:105400000720D6E72DE9F04F8FB0039000F0B6FAF1
:105410000122074607A903A8FEF7F8FE0446064640
:10542000002840F09D8004AB039907A80D93FFF777
:1054300063FA0446002800F09B80042840F0908026
:1054400031460798FFF784F90546002800F083806D
:10545000012D079800F088806B1C00F08780314692
:10546000FEF777FE0446002876D1DDF81CB0294609
:105470005846FFF716F80BF130080646424620461C
:10548000BBF80A30013B46D2434620210BF13B02D8
:105490009A4243D110232E2425FA03FA1FFA85F9E4
:1054A000202241468BF83B308BF83040CBF84670D9
:1054B000ABF84A90ABF844A00BF15000FEF7EAFDC0
:1054C000079A8BF851401178099B032903D1516A3F
:1054D000994208BF0023ABF86A301B0CABF864306C
:1054E0004FF0010B937833449E421AD107A8FFF77F
:1054F000C9FA044680BB10220C9B0798DA72C3F8E5
:105500001670A3F81A90A3F814A001230371FEF7F4
:1055100083FF044624E002F8010BB3E703F8011B04
:10552000B6E70798721C0021C66280F804B00293A7
:105530000192FEF70EFE044670B9DDE901234046F4
:1055400007994989013901D21646CDE74FF0000489
:1055500000F8014BF6E7072429460798FFF7E4FA1D
:1055600020460FB0BDE8F08F0224F5E70124F3E7F1
:105570000824F5E730B58DB00D46144601900122A0
:1055800005A901A8FEF742FEA0B902AB019905A842
:105590000B93FFF7B1F968B90A9868B1C37A5D4017
:1055A0002C4004F027045C400123C4720598037169
:1055B000FEF732FF0DB030BD0620FBE710B58CB012
:1055C0000C460190012205A901A8FEF71FFE88B92B
:1055D00002AB019905A80B93FFF78EF950B90A9B0E
:1055E00053B1E2880598DA82A2881A8301230371F5
:1055F000FEF712FF0CB010BD0620FBE710B59AB005
:105600000C46019001220CA901A8FEF7FFFD00281D
:1056100066D10C9B019913930CA803AB1293FFF76F
:105620006BF900285CD1119900295BD015220B3150
:1056300006A8FEF72FFD0CA913A81C22FEF72AFDD1
:10564000214613A8FFF758F900284DD0042847D168
:1056500013A8FFF717FA002842D1189C13220DF166
:105660001A0104F10D00FEF715FD9DF818300C9A93
:1056700043F02003E372012313710E99159B9942A5
:1056800027D0E37ADB0624D51378618B032B08BF80
:10569000A38A104608BF41EA0341FEF702FF014614
:1056A00020B31046FEF755FDD0B90C9A92F8513050
:1056B0002E2B0ED11178159B032903D1516A9942E3
:1056C00008BF0023A2F86A301B0CA2F86430012343
:1056D00013710CA8FEF7A9FF10B90C98FEF79CFEF9
:1056E0001AB010BD0420FBE70820F9E70220F7E715
:1056F000034B1A899207FCD580B29881704700BF8E
:10570000003C00400A4A134611898807FCD51A89D3
:105710001106FCD49A8992B21A8992B2FF229A8118
:10572000034B1A89D207FCD59889C0B2704700BFD5
:10573000003C004070B4164A13899D07FCD5144AFA
:1057400013891C06FCD493899BB213899BB2FF2456
:105750004D1E9481B1B10F4E0D4B0544411E1A8967
:105760009007FCD572B69C811A89D207FCD5327895
:1057700052B19A89D24302F0FF0201F8012F62B6BA
:10578000A942ECD170BC70479A89D2B2F5E700BF4C
:10579000003C004000EC00202DE9F84F06460C4686
:1057A000174680254FF40008DFF85CB0C1F3074AC4
:1057B000C1F3072980230520CBF81030CBF81080E7
:1057C000FFF796FFFFF79EFFC207FBD40320CBF83D
:1057D0001050CBF81080FFF78BFF5046FFF788FF83
:1057E0004846FFF785FFE0B2FFF782FF39463046B3
:1057F000FFF7A0FFFFF786FFDBF808201306D9D4D8
:10580000CBF81050BDE8F88F000C014037B50446C6
:10581000B0BB0E20BEF71EFDC2784378A2F1300166
:105820000A224A436421303B01FB03230279154DD0
:10583000303A1344B3F59C7F13DA00236B700822CF
:1058400000216846FFF7A8FF9DF80030142B05D112
:105850009DF80130C32B01D100232B70204603B0EB
:1058600030BD1220BEF7F6FC0378382BE5D1437823
:105870004D2BE2D18378422BDFD101236B70DEE721
:105880000124EBE700EC0020003818BF012070472E
:1058900038B50446084611467CB973B1084A5278B7
:1058A000012A0CBF4FF480554FF4007505FB03F23D
:1058B0006943FFF771FF204638BD0424FBE700BFB2
:1058C00000EC00202DE9F0410D4616461C4658BB61
:1058D00053B3DFF8588098F80130CBB977023946D6
:1058E0002846BEF7BFFC18B101242046BDE8F08170
:1058F00007F5807105F58070BEF7B4FC0028F3D180
:10590000013605F50075013C14F0FF04E3D1ECE726
:10591000012BF8D128463103BEF7A4FC0028E3D1BF
:10592000013605F58055EEE70424DEE700EC0020A3
:10593000F8B959B101290ED10F4B5B7843B1012B56
:105940000CBF4FF40063002300211360084670472A
:105950004FF48053F8E7023901290AD8064B014673
:105960005B78012B0CBF4FF480534FF4007313602E
:10597000ECE70421EAE700BF00EC00200048704794
:10598000A06C212830B5441E01F1080514F8012F40
:105990000B46202A01F101010AD12E221A70027A47
:1059A0005A70427A9A70827ADA7000221A7130BD87
:1059B000A94201F8012CE9D10B46EEE70A4A0B4B4C
:1059C0009A4202D00A498B4205D30021094B0A4A68
:1059D000934205D3704752F8040B43F8040BF2E7E7
:1059E00043F8041BF4E700BF7F5C040800EC0020D0
:1059F00002EC002004EC002060FC002000B51D4AF1
:105A00008BB01379A12B2DD01B4958204B6943F043
:105A100040034B61A1231371184B4FF4FC626E21BC
:105A200000930023BEF710FCFFF7C8FF144B6E2154
:105A3000582000934FF4FC620023BEF705FC0020C1
:105A40001049FFF79DF880B90F4903A8FFF767FBDE
:105A5000034650B90D4A00924FF4FC626E21582063
:105A6000BEF7F2FB0BB05DF804FB094B009300237B
:105A7000F2E700BF0030024000100240D35B040890
:105A8000005C040830EC00202F5C0408315C040842
:105A9000545C0408084B10B55A6803F1914303F5B0
:105AA0000C3303F2BB339A4201D1FFF7A7FFBDE8E5
:105AB0001040024B1B6818470008014020000008F6
:105AC00040B1012806D0022804D0043801288CBF38
:105AD00002200420704730B5094D85B0084669465C
:105AE0001446FFF74FFF0A2269462846FFF756F88B
:105AF0002B69238005B0BDE83040FFF7E1BF00BF50
:105B00000CEC002030B5094D85B0084669461446B6
:105B1000FFF738FF012269462846FFF73FF82B6957
:105B2000238005B0BDE83040FFF7CABF0CEC002071
:105B300013B504460D480988036999420AD10C4AF5
:105B40002146528901ABFFF7B0F802B0BDE8104022
:105B5000FFF7B6BF0648FEF7A4FC01230246214624
:105B60000020FFF795FE002002B010BD0CEC0020D5
:105B700030EC002013B5094C0146628901AB08489E
:105B8000FFF73AF96289019B9A4204D102B0BDE85D
:105B90001040FFF795BF032002B010BD30EC00208D
:105BA0000CEC002008B50648FFF731FA18B1BDE843
:105BB0000840FFF785BF0248FFF722FAF7E700BF6A
:105BC0000CEC0020222A2B2C3A3B3C3D3E3F5B5DF7
:105BD0007C7F00416C74657242494F5320302E34F3
:105BE0003A20496E697469616C697A696E67202030
:105BF00020202020202020202020202020202000C5
:105C0000416C74657242494F5320302E343A204D16
:105C10006F756E74696E672046617446532020204C
:105C20002020202020202020202020202020002F85
:105C300000416C74657242494F5320302E343A2033
:105C40004F4B2020202020202020202020202020FA
:105C500020202000416C74657242494F5320302E41
:105C6000343A204661744653204641494C20202056
:0F5C700020202020202020202020202020200065
:025C7F00010121
:0400000508044000AB
:00000001FF
