:020000040800F2
:1040000090010020E58E0008498400084D840008D6
:1040100051840008558400085984000800000000FD
:1040200000000000000000000000000061840008A3
:104030005D840008000000006584000869840008B1
:104040006D84000871840008758400087984000874
:104050007D84000881840008858400088984000824
:104060008D840008918400089584000899840008D4
:104070009D840008A1840008A5840008A984000884
:10408000AD840008B1840008B5840008B984000834
:10409000BD840008C1840008C5840008C9840008E4
:1040A000CD840008D1840008D5840008D984000894
:1040B000DD840008E1840008998500089D850008DA
:1040C000A1850008A5850008A9850008AD85000820
:1040D000B1850008B5850008B9850008BD850008D0
:1040E000C1850008C5850008C9850008CD85000880
:1040F000D1850008D5850008D9850008DD85000830
:10410000E1850008E5850008E9850008ED850008DF
:10411000F1850008F5850008F9850008FD8500088F
:104120000186000805860008098600080D8600083B
:1042000003F082B904F08EBD01F01ABA01F018BCB7
:1042100071E070E001F04EBC01F066BC01F03CBD05
:1042200076E075E091E090E099E098E066E065E086
:1042300078E077E0A3E075E004F03AB858E057E0A2
:1042400050E04FE051E050E001F05ABC00F0CCBD2E
:1042500001F0EAB801F0FAB803F018BF03F068BF44
:1042600002F002BD02F01CBD01F0C6BB04F0FEBDB1
:1042700004F0D2B804F0B8B804F0B0BA04F0B8BA98
:1042800021E020E026E025E002F058BE02F00EBE5C
:1042900002F04ABD02F068BD02F098BE00E0FFE700
:1042A0003D4B47F28152DA611A6A002AFCD147F28B
:1042B0008052DA6140F2C9021A625862996247F28A
:1042C0008152DA6170474FF00500344B1B68002BB8
:1042D00007D170474FF00000304B1B68002B00D116
:1042E000704718472E4B1B6818472E4B1B68184702
:1042F0002D4B1B6818472D49088070472649C8690F
:10430000012240EA0200C861086A0028FCD1704717
:1043100027498868012240EA02008860C8680028AE
:10432000FCD170471C4B47F2C152DA611A6A002A6D
:10433000FCD147F2C052DA6140F2C9021A625862F7
:10434000996247F2C152DA617047194B45F29052B7
:104350009A605861D96045F291529A607047144B47
:1043600045F211529A60DA68002AFCD145F21052E7
:104370009A605861D96045F211529A6070470D49B0
:1043800040F220020C4B4A6118884FEA00400A6153
:1043900019880844704700000000024034000008FB
:1043A0002800000824000008200000080000006029
:0C43B00000040240001001400000006406
:10456C0010B5DFF8284820B920680121018200200D
:10457C0010BDDFF8A40700680068804720680A3087
:10458C0010BD000000B581B0DFF800080068C178EC
:10459C00DFF83C2852788A420BD382784AB9828859
:1045AC003AB98172DFF870070068406880470020D4
:1045BC0000E0022001B000BD10B5DFF8D04720B9F3
:1045CC00206801210182002010BDDFF84C07006833
:1045DC008068804720680C3010BD000010B5DFF8F3
:1045EC00AC472068C1784079DFF898271268926947
:1045FC00904721688A7A22B118B9087908B9887865
:10460C0008B1022010BDDFF810070068C0688047B1
:10461C0020684179C172C1780173002010BD00007F
:10462C0010B5DFF86817096818B902200882002055
:10463C0010BD234C00202080087810F07F0F18D17B
:10464C00487A10F0200F1EBF217841F00201217032
:10465C0010F0400F207809D000F0FE002070DFF839
:10466C00B806006800698047200010BD40F00100CA
:10467C00F4E700F07F02012AF6D000F07F00022858
:10468C00D5D1487900F00F0110F0800F0BD0DFF876
:10469C00440750F8210000F030001028DFD12078BA
:1046AC0040F00100DAE7DFF82C0750F8210000F4A5
:1046BC004050B0F5805FD2D1207840F00100CDE7BA
:1046CC009C05002030B581B0DFF8C0060068017889
:1046DC0011F07F0104D1417A01F0DF01417266E0F3
:1046EC00022903D1418809B9017909B102205FE09F
:1046FC0041790C008022944311F0800F06D0DFF832
:10470C00D42652F8242002F0300205E0DFF8C4264B
:10471C0052F8242002F44052DFF8B4361B789C4245
:10472C00E4D2002AE2D0807A0028DFD011F0800F8A
:10473C000FD0DFF8A00650F8240000F0300010284D
:10474C0030D1200003F01EFB3021200003F0BAFA18
:10475C0028E0DFF8800650F8240000F44050B0F553
:10476C00805F1FD14BF68F7574B9DFF81C0690F87B
:10477C002C10002003F052FBDFF85806016829408A
:10478C0081F4405101600DE0200003F0E5FADFF800
:10479C00440650F824002840DFF8381680F44050C6
:1047AC0041F82400DFF8700500684069804700205C
:1047BC0001B030BD00B581B0DFF8D00501684A7991
:1047CC0010008023984312F0800F06D0DFF80436D7
:1047DC0053F8203003F0300305E0DFF8F83553F8D8
:1047EC00203003F44053DFF8E8C59CF800C0604566
:1047FC0007D2B1F802C0BCF1000F02D10BB1897A1B
:10480C0009B9022023E012F0800F0DD0DFF8C41597
:10481C0051F8201048F6BF721140DFF8B82581F02E
:10482C00100142F820100CE0DFF8A81551F8201008
:10483C004BF68F721140DFF89C2581F4805142F8C1
:10484C002010DFF8D404006880698047002001B094
:10485C0000BD000000B581B0DFF830050068417A7A
:10486C0041F020014172DFF8B0040068C069804754
:10487C00002001B000BD0000DFF810251268538A3B
:10488C0020B98888C01A1082002070470868181850
:10489C0070470000F0B581B0DFF8F054286800F1E3
:1048AC0010063088B1680A0015D0A0B1B488A042B7
:1048BC0038BF04462000884707003088001B308032
:1048CC00708820187080002003F094FA22000100F8
:1048DC00380004F059FA308860B1DFF8B4044FF4B2
:1048EC00405101800021002003F08EFADFF8A4046F
:1048FC003021018028683188B288914202D303218B
:10490C00017210E009B10521FAE706210172DFF806
:10491C00B403006880B25F49002241F81020DFF830
:10492C0074043021018001B0F0BD00002DE9F0418C
:10493C00DFF85844206800F110052988B1B9007AD5
:10494C00042813D1DFF80403017801290BD1DFF817
:10495C007413096889B24F4A002342F81130302190
:10496C000426037025E00726102122E0AF888F4231
:10497C0026D30426B94238BF0F46B8B2A968884777
:10498C008046002003F02CFABAB20100404604F035
:10499C00E9F9B9B2002003F037FA2888C01B288047
:1049AC006888381868803021DFF8E4034FF44052EF
:1049BC000280DFF8E003018020680672BDE8F08118
:1049CC000226DAE730B581B0DFF8C04320684578BD
:1049DC00017811F07F0F2ED1092D02D1FFF7D2FDF6
:1049EC003AE0052D0BD1C178802906D2817821B906
:1049FC00818811B9807A00283BD0082045E0032D2E
:104A0C000BD1C178012928D1818831BB407A10F0B3
:104A1C00200F22D0FFF71EFF1EE0012D1DD1C17803
:104A2C0001291AD18188C1B9407A10F0200F14D015
:104A3C00FFF748FE10E001F07F00012804D10B2D98
:104A4C000BD1FFF7CBFD07E0022806D1012DEFD0EB
:104A5C00032D02D1FFF7AEFE58B12800DFF8241366
:104A6C00096849698847032801D109200DE000280D
:104A7C00C3D106209349096889B2064A002342F83B
:104A8C001130DFF8101330220A802168087201B04F
:104A9C0030BD00000460004010B582B0BB4C2068F3
:104AAC004178062916D1017811F07F0F32D1807828
:104ABC00012803D1B3480068C1697BE0022803D107
:104ACC00B0480068016A75E0032823D1AD4800683E
:104ADC00416A6FE0002949D14188D9B9C1880229BE
:104AEC0018D10179B1B9017811F07F0F03D1828807
:104AFC000AB953495EE001F07F02012A16D1002168
:104B0C004079A04A12689269904718B92068807A57
:104B1C000028EED1206840789A49096809698847CD
:104B2C00032850D120680921017287E001F07F0130
:104B3C000229EFD1407900F00F0100F0700210F063
:104B4C00800F05D0A34850F8210000F0300004E09D
:104B5C00A04850F8210000F440509D4B1B7899421E
:104B6C00D8D2002AD6D10028C3D1D3E7082905D141
:104B7C00007810F07F0FCDD132491BE00A29C9D142
:104B8C00017801F07F010129C4D1817A0029C1D0BB
:104B9C0041880029BED101790029BBD1C1880129E6
:104BAC00B8D100214079774A126892699047002861
:104BBC00B0D125490800ADD0206800224282816125
:104BCC0000208847002021680A8A4FF6FF739A421A
:104BDC0002D10920087231E0022800D00AB908205D
:104BEC00F8E7087810F0800F22D0C8880090009B5E
:104BFC00934202D20098088212E0824210D261489D
:104C0C00006890F82C00824202D21048002206E084
:104C1C0092FBF0F303FB102010B90C480122027038
:104C2C005848006890F82C008882FFF77FFE05E05A
:104C3C000320087256484FF44051018002B010BD59
:104C4C002D4600086D450008C5450008B20500203A
:104C5C0030B581B019481B49096889B2184A52F815
:104C6C00111089B200EB4104484D2868017A0929DA
:104C7C0015D014F8011B017014F8011B4170A41C11
:104C8C0034F8020B03F000F929684880A41C34F8AE
:104C9C00020B03F0F9F8296888806088C8802868BE
:104CAC0001210172C08810B9FFF78CFE01E0FFF7FB
:104CBC00F3FE01B0BDE8304048E000BF00600040AA
:104CCC0008600040505C004010B5304C2068017A00
:104CDC00022901D0042904D1FFF728FE2068007AAC
:104CEC0014E0062911D1417805290AD1017811F077
:104CFC007F0F06D1C07800F04FF807480068006AB3
:104D0C008047204800688068804708202168087226
:104D1C00BDE810401AE000005405002010B51B4CF3
:104D2C002068007A032801D0052804D1FFF7B2FDD2
:104D3C002068007A06E0072803D112480068C06892
:104D4C008047082021680872BDE8104000B581B08A
:104D5C000D4890F82C10002003F060F80B48006808
:104D6C00017A082906D10A494FF480520A80094970
:104D7C0010220A80007A092801D1012000E00020CD
:104D8C0001B000BD50050020B40500204C050020EA
:104D9C00A4050020A605002010B50D4909780022B5
:104DAC0079B148F68F730B4C5FFA82FC54F82CE007
:104DBC0003EA0E0E4CEA0E0E44F82CE0521C8A420A
:104DCC00F2D340F080000149086010BD4C5C0040FB
:104DDC00F8060020005C00407047000030B581B040
:104DEC0005000C00222800F2CA82DFE810F0230034
:104DFC003C0055005A0062006B007800930097004D
:104E0C00C100D600CC006A0127023D0240024302D9
:104E1C005402580274027702C802C802C802C802BF
:104E2C00C802C802C802C802C802C8028902C80265
:104E3C00C802CB02B4F5803F0CD2DFF864054FF406
:104E4C00EB71C0F81C18C4F5E170DFF85415C1F80B
:104E5C002408A1E2DFF84805210CC0F81C18A1B207
:104E6C00C0F8241898E2B4F5803F0CD2DFF8300576
:104E7C004FF4EB71C0F81C18C4F5E170DFF8201585
:104E8C00C1F8280888E2DFF81805210CC0F81C18B6
:104E9C00A1B2C0F828187FE2DFF80805C0F8344842
:104EAC007AE26420A0EB5400DFF8F814C1F838085B
:104EBC0072E2DFF8F404016804F0010241EA825165
:104ECC00016069E22CB9DFF8E4040821C0F8141879
:104EDC0062E2DFF8D80400F501600821F0E7012C4C
:104EEC000AD1DFF8C80400F5826002210160DFF806
:104EFC00BC04C0F814144FE2002C40F04D82DFF8D3
:104F0C00AC0400F5016010210160DFF8A004C0F8CA
:104F1C00141841E2DFF88C0484623DE254B9DFF8E6
:104F2C00840400210162DFF88804DFF88814C0F8DB
:104F3C00BC1B31E2012C0AD1DFF8680400210162AC
:104F4C00DFF86C04DFF87014C0F8BC1B24E2DFF847
:104F5C006004DFF86814C0F8BC1BDFF848040321B8
:104F6C000162C462601C4008DFF83814486313E225
:104F7C00012C04D1DFF84804012141600CE2DFF878
:104F8C00400401219CE7012C03D1DFF834042021DB
:104F9C00F3E7DFF82C04202192E7082C00F2FC81C7
:104FAC00DFE814F009001800280037004900590008
:104FBC00680078008200DFF8080410210160DFF837
:104FCC00EC1301F582614FF400720A600421016058
:104FDC00082175E7DFF8E80310210160DFF8CC1336
:104FEC0001F582614FF400720A60042242600821CC
:104FFC000160D1E1DFF8C80310210160DFF8AC13C8
:10500C0001F582614FF400720A60042101600821ED
:10501C00B3E7DFF8AC0310210160DFF8900300F573
:10502C0082604FF400710160DFF894030421416049
:10503C0008214160B0E1DFF8880310214160DFF8FE
:10504C006C034FF40071C0F81414DFF874030421DE
:10505C000160082134E7DFF8680310214160DFF8B4
:10506C004C034FF40071C0F81414DFF854030421FE
:10507C004160BCE7DFF8480310214160DFF82C03E6
:10508C004FF40071C0F81414DFF8340304210160EC
:10509C00082172E7CA4810214160C4484FF40071DE
:1050AC00C0F81414C648C1E7C54810210160BF48B8
:1050BC004FF40071C0F81414C14804214160082158
:1050CC005BE7082C00F26881DFE814F009001E0091
:1050DC003100460059006D007F009300A500B348D5
:1050EC0000F501604FF400510160B54840210160AA
:1050FC00AE4800F501604FF480410160AB4800F50B
:10510C0001604FF40041DBE6A84800F501604FF464
:10511C0000510160AA4840210160A4484FF480412D
:10512C00C0F8141800F501604FF4004160E79F4887
:10513C0000F501604FF400510160A148402101606D
:10514C009A4800F501604FF48041016097484FF494
:10515C000041C0F814181FE1944800F501604FF4A9
:10516C000051016096484021016090484FF4804105
:10517C00C0F814184FF40041C0F814180CE18B4817
:10518C004FF40051C0F814188D48402141608748F5
:10519C0000F501604FF480410160844800F5016026
:1051AC004FF400418CE681484FF40051C0F81418BC
:1051BC008348402141607D484FF48041C0F8141869
:1051CC0000F501604FF4004112E778484FF40051AC
:1051DC00C0F814187A4840214160744800F5016009
:1051EC004FF48041016071484FF40041C0F814182D
:1051FC00D2E06E484FF40051C0F8141870484021AA
:10520C0041606A484FF48041C0F814184FF40041D3
:10521C00C0F81418C0E0654800F501604FF4005167
:10522C00016067484021416060484FF48041C0F8FC
:10523C0014184FF40041C0F81418ADE05B4800F5A9
:10524C0080606049016056488021C0F8F0135748CF
:10525C005D4901605D48012101605D480460504872
:10526C0000F57F6085212BE65148846094E050481E
:10527C00046091E04A4800F5836004604B48016883
:10528C0041F480210160464800F57F608421016073
:10529C004E48002114E64248C0F81C447CE04348C8
:1052AC0000F5806000686FF0706108403F4901F5BF
:1052BC00806108603D4800F58060006840F0306017
:1052CC003A4901F5806108603548C0F824448121D1
:1052DC00C0F8F01360E032480021F1E53148012CB0
:1052EC0006D132494FF40052C1F8142C84217FE6C8
:1052FC002E4901F541614FF400520A608521DFE52A
:10530C006FF070642948D0F8040420402749C1F894
:10531C000404D1F8040440F08070C1F80404084679
:10532C004FF48041C0F81414012000F07BFB1F489F
:10533C0000F582604FF480610160012000F072FB87
:10534C001A484FF48061C0F81414012000F06AFB75
:10535C00164800F582604FF480410160022000F095
:10536C0061FB1248D0F8040420401049C1F8040431
:10537C00D1F8040440F00060C1F804040CE0E1B280
:10538C00280007E0E1B2280000F048F8210AC9B271
:10539C00681CC0B200F042F8002001B030BD00BF64
:1053AC0010040040002C0140083C01400008014062
:1053BC004804024002841D0402841D0702841D005F
:1053CC001018014038B4BB34BB11101100740040EC
:1053DC002C140040104940220A600022130000FAED
:1053EC0003F313F0800F02D080230B6003E04FF027
:1053FC00800CC1F804C04FF0400CC1F804C040232D
:10540C000B60521CD3B2082BE8D380224A60402296
:10541C004A608020086070471008014010B50C00ED
:10542C00064920220A6000F01F00FFF7D3FF034853
:10543C00202141602000BDE81040CBE71010014056
:10544C0070B50C00112800F2DC80DFE800F0091CBC
:10545C0011273D7C838A8C8E909298A8A2AEBE3286
:10546C0069482021C0F80C184FF0C840008870BD66
:10547C0065482021C0F80C184FF0C840008800F097
:10548C000400800870BD60482021C0F80C184FF053
:10549C00C840008800F01000000970BD5A48202157
:1054AC00C0F80C184FF0C840008800F00800C00885
:1054BC0070BD55482021C0F80C184FF0C84000882A
:1054CC0000F02000400970BD4F48016801F4804194
:1054DC0000F50062126802F4806241EAC20100F534
:1054EC000062126802F4007241EA520100F5006297
:1054FC00126802F4807241EA4201026802F400521E
:10550C0041EAD20100F50062126802F4805241EACD
:10551C00520100F50062126802F4006241EA420195
:10552C00006800F400400843374901F54061096800
:10553C0001F008010843344901F54061096801F0A4
:10554C004001084370BD304800F54060006800F031
:10555C00040096E72D4800684FF4AF614843800A79
:10556C0070BD2B4870BD2B4870BD2B4870BD2B48AF
:10557C0070BD254800F580600068C00B70BD2248E6
:10558C0000F580600068000A00F0010080F0010066
:10559C0070BDFEF76FFE002834D1214870BDFEF7B8
:1055AC006BFE00282ED11F4870BD1F4854B30178E4
:1055BC00642283784FF00A0C03FB0CF301FB0231DD
:1055CC00C07840181949081870BD0F482021C0F840
:1055DC000C184FF0C84000888509154E2900300082
:1055EC0002F058FCB07830702E207070F078B070EB
:1055FC003079F070002030710CB9300070BD28008B
:10560C0070BD002070BD00BF080801404C3C01403B
:10561C00586800080C6900083C680008286B0008F2
:10562C00B8060020B0060020588F000830EBFFFFB2
:10563C00A806002070B5DFF810474FF480502060AA
:10564C004FF400602060012000F0ECF94FF4006191
:10565C0061600A2000F0E6F94FF40060206032200F
:10566C0000F0E0F900F0A0F94FF0C045DFF8D006EB
:10567C000068DFF8D016884275D1E92000F088F96F
:10568C0020202880112000F083F9642000F0CAF952
:10569C00D12000F07DF9002028805E202880172082
:1056AC002880D02000F074F90720288028800C2056
:1056BC002880362000F06CF9402028800C2000F067
:1056CC0067F9552028803A2000F062F9552028808F
:1056DC00C12000F05DF9102028802880022028804D
:1056EC002880C02000F054F9002028803520288024
:1056FC000020288028800120288002202880C520B6
:10570C0000F046F901202880D22000F041F9012058
:10571C00288022202880C82000F03AF90120288017
:10572C007320288037202880002028800F20288094
:10573C000220288004202880402028806720288090
:10574C0000202880022028800F2028800820288014
:10575C008020288000202880292000F019F92C2096
:10576C0000F016F970BD0021002000F003F90021B3
:10577C00084600F0FFF80021084600F0FBF8002175
:10578C00084600F0F7F80A2000F04CF901214FF41C
:10579C00C06000F0EFF80A2000F044F940214FF40B
:1057AC00DE6000F0E7F80A2000F03CF94FF4C44149
:1057BC004FF4806000F0DEF840F60801082000F09D
:1057CC00D9F84FF48071012000F0D4F84FF48071B7
:1057DC00022000F0CFF83021032000F0CBF801219B
:1057EC00092000F0C7F800210C2000F0C3F84FF49A
:1057FC000041902000F0BEF800210F2000F0BAF814
:10580C001621102000F0B6F840F2011631001120DC
:10581C0000F0B0F80021122000F0ACF801211320A8
:10582C0000F0A8F84FF44C714FF4807000F0A2F81F
:10583C0040F23721300000F09DF84FF4706140F2D7
:10584C00031000F097F84FF4D6414FF4207000F09D
:10585C0091F84CF2B0114FF4817000F08BF8642089
:10586C0000F0E0F84FF440614FF4407000F082F823
:10587C0045F60B2140F2013000F07CF840F60611A1
:10588C0040F2023000F076F841F2170140F203309A
:10589C0000F070F84FF40C514FF4417000F06AF8BE
:1058AC004FF4B85140F2053000F064F846F209317B
:1058BC0040F2063000F05EF840F6094140F2073045
:1058CC0000F058F841F20C014FF4427000F052F81D
:1058DC0042F2322140F2093000F04CF800214FF432
:1058EC00047000F047F8EF2140F2112000F042F86C
:1058FC00002140F2122000F03DF840F28F1140F2EE
:10590C00132000F037F800214FF4A06000F032F8BB
:10591C00002140F2015000F02DF8052140F2025018
:10592C0000F028F8012140F2014000F023F800219A
:10593C0040F2044000F01EF8642000F073F84FF4BD
:10594C008071072000F016F8642000F06BF800213D
:10595C004FF4007000F00EF8002140F2012000F02E
:10596C0009F84FF48051616040F2022028802160D8
:10597C0070BD0000DFF8D0234FF4805353604FF01C
:10598C00C0421080DFF8C003036011807047000034
:10599C00DFF8B4134FF480524A604FF0C0410880D6
:1059AC00DFF8A4030260704700B581B0EF20FFF769
:1059BC00EFFF4FF0C04000884FF0C04000884FF020
:1059CC00C04109884FF0C04212880906090A41EA11
:1059DC000060D1B240EA01204FF0C0410988C9B241
:1059EC000843D749086001B000BD000010B5D44889
:1059FC000068D44988420CD12E20FFF7C9FF4FF024
:105A0C00C04000884FF0C04004882C20FFF7C0FF36
:105A1C0005E04FF0C04000884FF0C04004882000E3
:105A2C0010BD00000249088008880028FCD170478E
:105A3C006005002070B505000C00FEF7EBFB4FF085
:105A4C00C046BF480068BF49884219D12A20FFF7D9
:105A5C009FFF00203080E0B2308000203080EF20AB
:105A6C0030802B20FFF794FF280A3080E8B230807A
:105A7C00012030808F2030802C20FFF789FF70BDF3
:105A8C0021004FF40070FFF775FF290040F2012050
:105A9C00FFF770FFAC484FF48051416040F2022098
:105AAC003080A948016070BD30B581B00A4D2880A6
:105ABC0000210020FFF7BEFF4BF6803421002800A8
:105ACC00FEF7ACFBFEF7A6FB2100280001B0BDE8F9
:105ADC003040FEF7A3BB00BFAA05002001EBC000BD
:105AEC00034901EB4000A0F508700088704700BF27
:105AFC00585D00082DE9F24F050093461C000A9EE4
:105B0C00FFF798FF0E271CB90020FEF77BFB04E083
:105B1C00012C04BF5846FEF775FB7F1EF3D16D1C9C
:105B2C0001E00835761C3078002841D00027A846C3
:105B3C00BDF800101FFA88F0FFF77CFF30782028A2
:105B4C0001D0212802D14FF0000903E0B9B2FFF7D0
:105B5C00C5FF81463078212801D1042F26D04FF083
:105B6C000E0A19F0040F08D01CB95846FEF74AFB70
:105B7C000DE0012C0BD10020F8E71CB90020FEF73A
:105B8C0041FB04E0012C04BF5846FEF73BFB4FEAF7
:105B9C0009494FEA6949BAF1010AE2D17F1C08F1BF
:105BAC000108082FC4DB30782128BAD12D1DB9E7A4
:105BBC0001B0BDE8F08F00002DE9F04F89B08346AD
:105BCC00D9460C0000A9304A082392F800C04FEACD
:105BDC00DC0C92F801E04FEA9E0E4FEA4E1E0EEBE3
:105BEC00CC2C92F802E04FEADE0EF44421F802CB02
:105BFC0092F804C04FEADC0C92F805E04FEA9E0ED6
:105C0C004FEA4E1E0EEBCC2C92F806E04FEADE0E5D
:105C1C00F44421F802CB08325B1ED6D11A4901F1AB
:105C2C0040054FF4005600F1FF0A4FF0C0470DF14C
:105C3C00000821004846FFF7FDFE2878001138F8CF
:105C4C001000388009F101091FFA89F9CA4502DAF6
:105C5C00D946641CA4B221004846FFF7EBFE287815
:105C6C0000F00F0038F81000388009F101091FFA14
:105C7C0089F9CA4502DAD946641CA4B26D1C761E99
:105C8C00D7D109B0BDE8F08F36D803082DE9F04123
:105C9C0006000F0015001C004FF0C0482848006893
:105CAC002849884221D12A20FFF772FE280AA8F839
:105CBC000000E8B2A8F80000200AA8F80000E0B242
:105CCC00A8F800002B20FFF763FE300AA8F80000AC
:105CDC00F0B2A8F80000380AA8F80000F8B2A8F84A
:105CEC0000002C20FFF754FE27E0210040F2112089
:105CFC00FFF740FE390040F21320FFF73BFE29006E
:105D0C004FF40470FFF736FE310040F21220FFF71B
:105D1C0031FE29004FF40070FFF72CFE310040F2E9
:105D2C000120FFF727FE08484FF48051416040F2F4
:105D3C000220A8F8000004480160BDE8F0810000D2
:105D4C00900500202793040210140140000000006D
:105D5C0000001C00200040004000400040004000BB
:105D6C0020001C00000000000000000000000000EB
:105D7C00000000E00010000800080008300C600C67
:105D8C00C000800100033006300C00000008000841
:105D9C00001000E0000000000000000010201020A7
:105DAC001020102010201020F03F000000000000F8
:105DBC00C00FE01F30301020000000000000000079
:105DCC0010203030E01FC00F000000000000C01891
:105DDC00800D00070007800DC018000000000001B6
:105DEC000001C007C0070001000100000000000016
:105DFC000000FCFF0000000000000000000000019B
:105E0C000001000100010001000100000000000081
:105E1C000000300030000000000000003000600086
:105E2C00C000800100030006000C0000E01FF03FE2
:105E3C00902010231024F03FE01F000000001008F9
:105E4C001018F03FF03F1000100000007010F03000
:105E5C0090211023102630383018000020103030DC
:105E6C00102210221022F03FE01D0000000300075A
:105E7C00000D1019F03FF03F10010000203E303EA5
:105E8C00102210221023F023E0210000E00FF01F5D
:105E9C00103210221022F003E0010000003000301C
:105EAC00F020F0210023003E003C0000E01DF03FFC
:105EBC00102210221022F03FE01D0000001C103EAA
:105ECC00102210223022E03FC01F00000000000012
:105EDC000000600C600C000000000000400040005E
:105EEC004000400040004000400040000000000125
:105EFC008003C006600C30181010000000009000E9
:105F0C009000900090009000900000004002400231
:105F1C00400240024002400240020000000010100B
:105F2C003018600CC006800300010000C00F201068
:105F3C0090279024D0275010800F0000F007F00F0E
:105F4C00001900310019F00FF00700001020F03F8D
:105F5C00F03F10221022F03FE01D0000C00FE01FA8
:105F6C003030102010203030601800001020F03F2E
:105F7C00F03F10203030E01FC00F00001020F03F29
:105F8C00F03F102210273030703800001020F03F06
:105F9C00F03F10220027003000380000C00FE01F37
:105FAC00303010211021E031F0190000F03FF03FAB
:105FBC00000200020002F03FF03F00000000000071
:105FCC001020F03FF03F102000000000E000F00037
:105FDC0010001020F03FE03F002000001020F03FA8
:105FEC00F03F0003000FF03C703000001020F03F39
:105FFC00F03F10201000300030000000F03FF03F68
:10600C00001C000E001CF03FF03F0000F03FF03F82
:10601C00001C000E0007F03FF03F0000C00FE01F17
:10602C00303010203030E01FC00F00001020F03F47
:10603C00F03F10220022003E001C0000E01FF03F49
:10604C00102070203020F83FE81F00001020F03F97
:10605C00F03F00220023F03FF01C00006018703C61
:10606C00102610221023F039E01800000000003830
:10607C001030F03FF03F103000380000E03FF03FB0
:10608C00100010001000F03FE03F0000803FC03FC8
:10609C00600030006000C03F803F0000C03FF03F18
:1060AC007000C0017000F03FC03F00003030F03C89
:1060BC00C00F0003C00FF03C303000000000003C6B
:1060CC00103EF003F003103E003C00007038F0303E
:1060DC00902110231026303C703800001000300046
:1060EC00500090011003100CF03F00000008000855
:1060FC000008000800080008000800080000000064
:10610C0000007CFC800280020001000100020004FF
:10611C00000CF01FF03F000C000400020001800096
:10612C00C000E03FF03FC0008000000110201020B4
:10613C00102010201020102010201020E000F0055E
:10614C0010051005E007F003100000001020F03FD0
:10615C00E03F10021002F003E0010000E003F00742
:10616C00100410041004300620020000E001F003BB
:10617C0010061024F03FF03F10000000E003F00781
:10618C001005100510053007200300000000100258
:10619C00F01FF03F1022003000180000C803EC077D
:1061AC0024042404FC03F807000400001020F03F32
:1061BC00F03F20020004F007F00300000000000094
:1061CC001004F037F0371000000000000000180039
:1061DC001C000404FC37F837000400001020F03FCA
:1061EC00F03F8021C0037006300400000000000066
:1061FC001020F03FF03F100000000000F007F00707
:10620C000006F0030006F007F00700000004F0079A
:10621C00F00300040004F007F0030000E003F007B3
:10622C00100410041004F007E00300000404FC0741
:10623C00FC0344044004C007800300008003C00733
:10624C0040044404FC07FC03040400001004F007A1
:10625C00F0031006000400060003000000002002FA
:10626C00300790059004F006600200000004000462
:10627C00E01FF03F1004300420000000E007F0079E
:10628C0010001000E007F007100000000000C0072D
:10629C00E00730003000E007C0070000E007F0071F
:1062AC003000E0003000F007E0070000100430067A
:1062BC00E003C001E0033006100400008007C407AF
:1062CC00440044004400F807F00700003006700654
:1062DC00D0049005100730063004000080078004BD
:1062EC00F03C1020D02FD02FD02FD02FD02FD02F4C
:1062FC00D02FD02FD02FD02FD02FD02FD02FD02F9A
:10630C00D02FD02FD02F1020F03F0000800780041A
:10631C00F03C1020102010201020102010B502F09E
:10632C00E5FA4FF4803002F001FB164C02F01CFB36
:10633C002070012817D1102002F040FA022002F040
:10634C0033FA114811490160012002F025FB392074
:10635C0002F03EFB0028FAD0022002F023FB02F0F0
:10636C0029FB0828FBD1084840F2171101614AF6B5
:10637C007D614161002002F023FB034804498161E7
:10638C0010BD00BFB10500200410024002841D00A6
:10639C002F80802000B581B04FF480414FF0006019
:1063AC0002F008FC4FF4C06002F0B2FB14208DF830
:1063BC00000001208DF801008DF802008DF803001B
:1063CC0000A802F0ADFB13208DF8000001208DF821
:1063DC00010000208DF8020001208DF8030000A8B8
:1063EC0002F09EFB1D208DF8000001208DF80100AD
:1063FC0000208DF8020001208DF8030000A802F0A7
:10640C008FFB01B000BD00001E481F49C0F8FC17EF
:10641C0000F500601D4901601A484EF2FF71C0F88A
:10642C0008181B49C0F8FC1B00F540601F490160AF
:10643C004FF6FF701349C1F8080C164AC1F8FC2F2F
:10644C001549164A0A604FF6EF728A60144AC1F871
:10645C00FC2301F58061134A0A600F4901F5816143
:10646C0008600D49104AC1F8FC2701F500614FF096
:10647C00BB320A600849C1F8080802484FF0806135
:10648C000160704704000140BB888011BB3B8388CE
:10649C0018B8BB3B001011BB04100140888838337E
:1064AC00BB84BBB8BB1B13BB833333B33833888873
:1064BC004FF020400949416009484FF02041C1F894
:1064CC00040145F211020A60064ACA60C1F80C01C7
:1064DC00084645F211018160704700BF020F101091
:1064EC00010410100207101010B586B00020ADF892
:1064FC0000004FF48270ADF802000020ADF80400EB
:10650C000220ADF806000120ADF808004FF4007031
:10651C00ADF80A00002003900720ADF81000054CE0
:10652C0000A9200002F0C8FB0121200002F0DCFBD6
:10653C0006B010BD003C00401A481B4981604FF466
:10654C00D55101604FF480524260016841F0010165
:10655C00016047F2C05141610021C0F8041400F5FC
:10656C0081604FF0C04101600E4800F5806000680A
:10657C0040F001000B4901F580610860094800F505
:10658C00806047F291510160064800F58860242133
:10659C00016004480549C0F8441443F2B151C0F8F5
:1065AC003C147047080002404C2401400874004021
:1065BC000348012101604FF400618160704700BF06
:1065CC0000740040424800210160424800F58060A0
:1065DC000160404801603E484FF4BC0141603D48B9
:1065EC004FF48011C0F804143B4941603848002135
:1065FC008162384800F58560016036488162344814
:10660C000C210163334800F586600B210160314891
:10661C000A2101632E48802181602E4800F581609B
:10662C00002101602B4881602948406840F001003E
:10663C00274948602748D0F8040440F00100254958
:10664C00C1F80404486840F00100486020484068E4
:10665C0040F008001E494860486810F0080FFBD154
:10666C001C48D0F8040440F008001A49C1F804048E
:10667C00D1F8040410F0080FFAD1486840F0080073
:10668C004860486810F0080FFBD11148406840F092
:10669C0004000F4948600F48D0F8040410F0040FB0
:1066AC00F9D10C48D0F8040440F004000949C1F8B1
:1066BC000404D1F8040410F0040FFAD1486840F037
:1066CC0004004860486810F0040FFBD1704700BF0D
:1066DC00043C014004240140000110003E48092103
:1066EC0081622321C162122141630321016278215D
:1066FC0081614FF4004141640021C160852101603A
:10670C0036484721816240F2E731C1620121C16004
:10671C008521016000F58560032101602F4844F25A
:10672C004F61C0F82C1442F22831C0F8341400F533
:10673C00846001210160294800F5836078210160A3
:10674C00264800F580608121016024480021C0F8B2
:10675C00281840F2F311C0F82C184FF49671C0F8B9
:10676C003418C0F8381800F50260332101601B485A
:10677C0047F67801C0F8181800F500608121016017
:10678C001748132181626321C1624FF48071C1608B
:10679C0008214160852101600F48C721C0F82818E5
:1067AC006321C0F82C183221C0F834186421C0F8C9
:1067BC00381800F5026013210160074847F678018C
:1067CC00C0F818184FF40041C0F8441800F50060E8
:1067DC0091210160704700BF002C01400004004073
:1067EC0000140040104800680F4949680E4A92682E
:1067FC00C8B10E4B98704FEA102C83F804C04FEAC6
:10680C00104C83F806C0000E18729972080A18739F
:10681C00080C9873080E18749A74100A1875100CDA
:10682C009875100E18767047E8F7FF1F5406002075
:10683C009001F000070015000F00C80000100100C7
:10684C0001011100000000040000000435306D56F9
:10685C00000000000000000400000004D00700004D
:10686C00302E31560000000000000004000000042F
:10687C00A00F0000302E325600000000FEFF000476
:10688C00FAFF0004401F0000302E355600000000B7
:10689C00FFFF0004FAFF0004204E000020315620B8
:1068AC000000000000000004FAFF0004409C0000FF
:1068BC002032562000000000FEFF0004FAFF000406
:1068CC00803801002035562000000000FFFF000436
:1068DC00FAFF0004400D0300213130562100000066
:1068EC0000000004FAFF0004801A060000000000FB
:1068FC00000000000000000000000000000000008C
:10690C002120315320210000E7035F09B00400046B
:10691C0055A0FC013530306D53000000E703AF0487
:10692C00580200042B50FE003230306D5300000032
:10693C00E703DF01F0000004ABB965003130306DC6
:10694C0053000000E703EF0078000004D5DC3200B0
:10695C002135306D53210000E70377003C00000423
:10696C006B6E19002132306D532100006300DF0182
:10697C00F00000042B2C0A002131306D5321000053
:10698C006300EF00780000041516050020356D53E8
:10699C0020000000630077003C0000040B8B020019
:1069AC0020326D53200000000900DF01F0000004CC
:1069BC006B04010020316D53200000000900EF0032
:1069CC00780000043582000035303075530000002B
:1069DC00090077003C0000041B4100003230307588
:1069EC00530000000000DF01F00000040B1A00004F
:1069FC0031303075530000000000EF0078000004C7
:106A0C00050D000021353075532100000000770082
:106A1C003C00000483060000213230755321000035
:106A2C0000002F00180000049B020000213130757B
:106A3C0053210000000017000C0000044D01000061
:106A4C00203575532000000000000B0006000004E8
:106A5C00A700000020327553200000000000040045
:106A6C000300D703430000002031755320000000C1
:106A7C00000002000200330321000000302E3575A7
:106A8C00530000000000010001006602110000002C
:106A9C00302E327553000000000000000100EC01A4
:106AAC0007000000302E317553000000000000007C
:106ABC000100F60003000000203275532B0000008B
:106ACC00000009000300D703430000002031755378
:106ADC002B000000000004000200D703210000007E
:106AEC002E3575532B00000000000200010033030B
:106AFC00110000002E3275532B0000000000010025
:106B0C000100D703070000002E3175532B00000045
:106B1C00000000000100EB01030000003C56740073
:106B2C000000000000003C56740000000000010250
:106B3C003C5674000000000002043C567400000037
:106B4C00000003063E5674000000000000013E5693
:106B5C0074000000000001033E56740000000000A9
:106B6C0002053E5674000000000003073A215C2128
:106B7C000000000000083A215C2100000000010A1E
:106B8C003A215C2100000000020C3A215C2100003B
:106B9C000000030E3A215E210000000000093A219A
:106BAC005E2100000000010B3A215E210000000074
:106BBC00020D3A215E2100000000030F3C544C00F2
:106BCC000000000000103C544C00000000000112BA
:106BDC003C544C000000000002143C544C000000DB
:106BEC00000003163E544C000000000000113E54FF
:106BFC004C000000000001133E544C00000000004B
:106C0C0002153E544C000000000003173C54480091
:106C1C000000000000183C54480000000000011A5D
:106C2C003C54480000000000021C3C54480000008A
:106C3C000000031E3E5448000000000000193E54A2
:106C4C00480000000000011B3E54480000000000FA
:106C5C00021D3E54480000000000031F2DE9F041C6
:106C6C0006000C0015004FF00008164F002038707D
:106C7C002A0021003000FDF7EBFA404600F1010834
:106C8C00C0B2072801D3012002E038780028EDD1EA
:106C9C00BDE8F081F0B581B005000C000026094F6D
:106CAC000020387021002800FDF7D0FA3000461C77
:106CBC00C0B2072801D3012002E038780028EFD1B8
:106CCC0001B0F0BDB005002010B582B004002088E2
:106CDC004108091801F5805160800022228040F69D
:106CEC00FF72904216D2022800D213E0022200A8B2
:106CFC00FDF7B0FA08B101200DE0608810F0010F2B
:106D0C0003D0BDF80000000903E0BDF80000000549
:106D1C00000D2080002002B010BD000070B50500F1
:106D2C000E003088400200F5F8444FF480722100C8
:106D3C002800FDF78FFA08B1012070BD4FF4807266
:106D4C0004F5807105F58070FDF784FA0028F3D105
:106D5C003000FFF7B9FF00B1022070BD70B505001F
:106D6C000E003088400200F5F84421002800FDF7A1
:106D7C0073FA08B1012070BD05F5807504F58071BA
:106D8C002800FDF769FA0028F4D13000FFF79CFFCA
:106D9C0008B1022070BD308870B970883080310025
:106DAC00280000F00BF808B1032070BD310028005A
:106DBC0000F034F80028DDD1002070BD30B581B072
:106DCC000C00208860800020208040F6FF7504E0D5
:106DDC00401C208080B2A8421CD22088022241088C
:106DEC00401800F5805100A8FDF734FA08B10120D5
:106DFC0011E0208810F0010F03D0BDF80010090934
:106E0C0003E0BDF800100905090D0029E0D16188E7
:106E1C008842DDD0002001B030BD00002DE9F041EA
:106E2C0005004E880F8806EB560080B200F47F41B7
:106E3C0001F580545FFA80F84FF48172210028002C
:106E4C00FDF708FA08B1012028E008EB050016F060
:106E5C00010F09D018F8051001F00F0101EB071113
:106E6C0008F80510391108E008F80570417801F0B0
:106E7C00F0013A1202F00F02511841702100280063
:106E8C00FDF7EAF90028DED104F5807105F5807074
:106E9C00FDF7E2F9401E8041C043C00FBDE8F08110
:106EAC002DE9F04105000E0017001C000020388071
:106EBC004FF4804020604FF4807221682800FDF769
:106ECC00C9F908B1012013E0290000220B00B446D7
:106EDC0016E0226820322260203080B2203103007C
:106EEC004FF4807C6345F0D3B2F5004FE3D303201D
:106EFC00BDE8F081521C1FFA82FEBEF10B0FE8D2E6
:106F0C0093F800E0BEF1000F0FD013F801EB1CF862
:106F1C00018BC645DDD11FFA82FEBEF10A0FE9D105
:106F2C004019408B38800020E2E70420E0E70000A5
:106F3C002DE9F04204000D0016009946FFF7B0FF52
:106F4C0004283BD131002000FFF738FF08B10320A3
:106F5C0034E0D9F80000C7B24FF48072C11B200096
:106F6C00FDF778F908B1012028E028783855381950
:106F7C00401C691C022211F8013B00F8013B11F87E
:106F8C00013B00F8013B11F8013B00F8013B11F803
:106F9C00013B00F8013B11F8013B00F8013B521E8C
:106FAC00E9D1381931884183D9F80000C11B200080
:106FBC00FDF752F9401E8041C043C00FBDE8F0827E
:106FCC0070B505000E0011001C0040F6FF70088023
:106FDC002800FFF723FF4FF480722168FF208143C4
:106FEC002800FDF737F908B1012070BD2068C0B248
:106FFC0040192021C1722068C0B24019C6612168B5
:10700C00FF2081432800FDF727F90028ECD100244C
:10701C004FF480564FF4807231002800FDF71AF9B6
:10702C000028E1D106F5C0512800FDF715F900281C
:10703C00DAD1641C06F58076A0B20C28EAD30020C5
:10704C0070BD000000B581B09B4890F83010891ECF
:10705C000AD0491E10D0491E012916D8002180F8EB
:10706C0030104FF440510DE0C17B28290DD1816FB8
:10707C00406F00F007FB08E00121002000F0FAF857
:10708C004FF44051022000F035FE01B000BD00006D
:10709C0030B581B0884CE57B022000F0DDFE6086C7
:1070AC000246D82104F1340001F06EFE94F8300051
:1070BC0010B1012803D009E000F016F811E02A2DD8
:1070CC0005D1A16F606F00F005FB0AE0022000F013
:1070DC00F5F82421052000F0CBFA0021022000F065
:1070EC00C9F801B030BD000010B5734C628E22B1EE
:1070FC0004F13401200001F0B3FD60686062A06807
:10710C00A062608E1F2806D0022000F0D7F8002065
:10711C0020601A2188E0E07B282801D02A280FD192
:10712C00617CA27C120442EA0161E27C41EA022108
:10713C00227D11436167A17DE27D42EA0121A167B5
:10714C0021683D4A91426BD13C490968627B91426E
:10715C0003D3A17B09B1112904D3022000F0AEF8AE
:10716C00242161E0002845D003282ED0042851D0DA
:10717C00082852D00A2850D0122829D015284CD0D3
:10718C001A282BD01B2826D01D2846D01E2822D0EA
:10719C00232829D025282AD028282ED02A2831D0B7
:1071AC002F2834D0552838D05A281AD0882834D0D3
:1071BC008A2832D08F2830D09E282ED0A8282CD0C8
:1071CC00AA282AD0AF2828D02AE000F049FA10BD0E
:1071DC0000F0E6F910BD00F051FA10BD00F034FAE1
:1071EC0010BD00F037FA10BD00F0EEF910BD00F044
:1071FC0009FA10BD00F0B2FA10BDA16F606F00F07B
:10720C0041FA10BDA16F606F00F064FA10BD00F080
:10721C008BFA10BD00F0AEFA10BD00F0ADFA10BD47
:10722C00022000F04BF82021052000F021FA00216B
:10723C00012000F01FF810BD555342439405002067
:10724C0010B50C002200982101F08CFD21000120CA
:10725C0000F0DAFD3021012000F034FD1648032146
:10726C0080F83010816A091B8162002180F82C1093
:10727C0010BD000030B581B00C000F4D0D492962D6
:10728C0085F82C000D22982105F1200001F06AFDF3
:10729C000D21012000F0B8FD052085F8300034B137
:1072AC00042085F830003021012000F00BFD01B0E6
:1072BC0030BD00BF55534253B404002000B581B01B
:1072CC0020B1012807D0022808D010E0102101209D
:1072DC0000F0F8FC0BE04FF4805105E01021012088
:1072EC0000F0F0FC4FF48051022000F003FD01B0DF
:1072FC0000BD00002DE9F04F81B048F6BF744BF68D
:10730C008F757D4EDFF888B2A44FDFF88882DFF8E6
:10731C00889224E057F820A01FFA8AFA1AF4004F3A
:10732C000BD057F8201040F68F72114047F8201000
:10733C000BEB800050F8040C80471AF0800F0ED035
:10734C0098F8000057F8201048F60F72114047F8D3
:10735C0020108E4901EB800050F8040C8047786CAB
:10736C00A9F8000010F4004F00F0C38047F6FF713D
:10737C007964B9F8000010F00F0088F80000C9D14A
:10738C00386800F440503080386800F0300070806D
:10739C003868284080F4005038603868204080F00D
:1073AC0020003860B9F8000010F0100F24D13868B4
:1073BC0048F60F7108403860FDF786FC38682840A5
:1073CC00318811F4805F18BF80F4805011F4005F95
:1073DC001CBF80F4005080B238603868204071883F
:1073EC0011F0100F18BF80F0100011F0200F1CBF0F
:1073FC0080F0200080B27BE0D7F800A01FFA8AFA58
:10740C001AF0800F24D0386848F60F7108403860A5
:10741C00FDF75AFC38682840318811F4805F18BF9A
:10742C0080F4805011F4005F1CBF80F4005080B2D7
:10743C00386038682040718811F0100F18BF80F048
:10744C00100011F0200F1CBF80F0200080B24FE024
:10745C001AF4006F24D0386840F68F7108403860F9
:10746C00FDF7F6FB38682840318811F4805F18BFAF
:10747C0080F4805011F4005F1CBF80F4005080B287
:10748C00386038682040718811F0100F18BF80F0F8
:10749C00100011F0200F1CBF80F0200080B227E0FC
:1074AC001AF4004F3FF45BAF386840F68F71084018
:1074BC003860FDF733FC38682840318811F4805F60
:1074CC0018BF80F4805011F4005F1CBF80F4005092
:1074DC0080B2386038682040718811F0100F18BFE6
:1074EC0080F0100011F0200F1CBF80F0200080B243
:1074FC00386001B0BDE8F08FA40500202DE9F04301
:10750C0081B0224C48F60F75214E224FDFF888804F
:10751C00DFF874900DE0214951F8201040F68F727D
:10752C0011401E4A42F8201006EB800050F8040C63
:10753C008047D9F80000A8F8000010F4004F1FD0C5
:10754C0047F6FF70C9F80000B8F8000000F00F0013
:10755C003870124951F8201089B211F4004FDAD169
:10756C0011F0800FE5D00D4951F8201029400B4A3D
:10757C0042F8201004EB800050F8040C8047D8E748
:10758C0001B0BDE8F08300BF445C004070060020F1
:10759C008C060020B3050020AC050020005C0040E8
:1075AC009A49087C10F0010F02D00548052104E02F
:1075BC000448C97C252928BF2421FFF741BE00BF00
:1075CC007C0500203006002000B581B000F03EFEA6
:1075DC008D4801680A480A0E02710A0C42710A0AA7
:1075EC008271C1718A4909680A0C42720A0A827254
:1075FC00C1720C2101B05DF804EBFFF721BE00BF96
:10760C00D406002000B581B000F020FE7E48016851
:10761C004A1E0C48130E0370130C4370120A82702E
:10762C00491EC1707A4909680A0E02710A0C42712E
:10763C000A0A8271C171082101B05DF804EBFFF7F1
:10764C00FFBD00BF8405002004210148FFF7F8BDF1
:10765C00FC06002008210148FFF7F2BDF0060020CF
:10766C006A48C17C132928BF12210348FFF7E8BDE3
:10767C00014A907011737047C00600200121002050
:10768C00FFF7F8BD70B505000C00264E3078D0B968
:10769C0022002900282000F08BF8C8B15B48007B41
:1076AC0010F0800F03D00220307021000DE002207A
:1076BC00FFF704FE24210520FFF7DAFF012101204A
:1076CC00FFF7D8FD70BD022802D1280000F09AFF08
:1076DC0070BD000010B5134C2278F2B90A000100FD
:1076EC002A2000F065F8E0B14848007B10F0800FCC
:1076FC0007D1012020704FF44051022000F0FAFA1B
:10770C0010BD0020FFF7DAFD24210520FFF7B0FFA4
:10771C0000210120FFF7AEFD10BD012A08BF00F0CB
:10772C00CFFF10BDE404002000B581B0374881685C
:10773C0031B9007C10F0040F02D10121002008E0C7
:10774C000220FFF7BBFD24210520FFF791FF00214C
:10775C000120FFF78FFD01B000BD000000B581B026
:10776C0000F074FD0121002001B05DF804EBFFF77F
:10777C0081BD000000F06ABD00B581B0234881686E
:10778C0009B9002006E0007B10F0800F01D000202A
:10779C0000E00220FFF792FD20210520FFF768FF93
:1077AC000021012001B05DF804EBFFF763BD000080
:1077BC0000B581B0144B1B6851188B4211D22A288A
:1077CC0002D10220FFF77AFD0020FFF777FD21217F
:1077DC000520FFF74DFF00210120FFF74BFD002096
:1077EC0010E00A4989680A4B1B685A43914208D039
:1077FC002A2801D1022000E00020FFF75FFD2421A0
:10780C00E6E7012001B000BD70050020B4040020A3
:10781C006C05002000B581B0FEF7E4FF91480068CC
:10782C000021817201F0E8FA064800214160064807
:10783C004FF404410180034801604B480021016072
:10784C0001B000BD405C0040AE05002010B53148D1
:10785C0000218172834800682F49C9794172002048
:10786C0000F01AFA4FF40071002000F01DFA2021EC
:10787C00002000F027FA1821002000F0A5FA274C70
:10788C0094F82C10002000F0C9FA5821002000F0C8
:10789C008FFA002000F054FA002000F043FA002187
:1078AC00012000F001FA9821012000F081FA20213A
:1078BC00012000F007FA0021012000F01BFA002142
:1078CC00022000F0F1F9D821022000F07DFA94F8A2
:1078DC002C10022000F0A2FA4FF44051022000F0CC
:1078EC0009FA0021022000F0EDF994F82C10002088
:1078FC0000F094FA002000F015FA0020FDF74CFA85
:10790C001948012101603D483D4901603D48002175
:10791C00017010BD300500204C8E0008B40500200D
:10792C0000B581B04F480068807A58B10E480521E7
:10793C000160012000F026FA022000F00DFA314817
:10794C000021017001B000BD00B581B02B4800686A
:10795C002B49884202D00220FFF7B0FC01B000BDD9
:10796C000148042101607047980500207047000011
:10797C007047000000B581B03A4909680A7802F0F6
:10798C007F02212A0BD1FE2809D1488848B9888862
:10799C0038B9C888012802D10648020002D1022059
:1079AC0006E0FCE788610020488200F04FF80020D8
:1079BC0001B000BD597A000800B581B029490968A9
:1079CC000A7802F07F02212A15D1FF2813D14888AA
:1079DC0088B9888878B9C88868B9012000F0D2F9CC
:1079EC00022000F0B9F9054805490160054800215D
:1079FC000170002000E0022001B000BDB4040020A2
:107A0C0055534243E404002001B900B102207047F1
:107A1C000149FCF731BF00BFE00600200149FCF72B
:107A2C002BBF00BFE806002000B581B00D490968E6
:107A3C00C978062901D3002004E0034A02EBC101F6
:107A4C00FCF71AFF01B000BDE405002028B9054879
:107A5C00006801210182002070470148704700BF77
:107A6C00940500204C050020F0B583B0FEF756FCC1
:107A7C00FEF790FCFEF7C8FCFEF730FEFEF718FD93
:107A8C00FEF732FDFEF758FDFEF79CFDFEF790FD6C
:107A9C004FF4FA71142000F0EBFAFDF7CBFD002047
:107AAC00FEF702F896214620FEF786F8714C10B5C9
:107ABC0000234FF4FC625A212820FEF71BF802B079
:107ACC0000210D20FDF7BCFC01B500234FF4FC6236
:107ADC005A219020FEF70EF802B004F1100001B507
:107AEC0000234FF4FC625A21C820FEF703F802B0C1
:107AFC00FCF79EFB010000A800F0FCF940F2FF75BA
:107B0C0000A801B500232A005A214FF49070FDF70C
:107B1C00F1FF02B004F11C0001B500234FF4FC622C
:107B2C0046213020FDF7E6FF02B000210F20FDF7C3
:107B3C0087FC01B500234FF4FC6246214FF488709A
:107B4C00FDF7D8FF02B04C48D0F8040810F4806F51
:107B5C005CD04948D0F8040810F4007F56D0464851
:107B6C00D0F8040810F4807F50D0444E00203070C0
:107B7C0000F07AFBFCF75EFB012840D004F14400D6
:107B8C0001B500234FF4FC6232213020FDF7B2FF27
:107B9C0002B032214FF48C7000F084FB0700FCF72C
:107BAC0049FB012805D004F16C0001B500232A0023
:107BBC0012E00021380000F05BFB012806D104F133
:107BCC00940001B500234FF4FC6205E004F1BC0005
:107BDC0001B500234FF4FC6232213020FDF78AFFFF
:107BEC0002B004F1E40001B500234FF4FC621E2145
:107BFC003020FDF77FFF02B030780028FCD0204801
:107C0C0040682049486008601D4825E01A48D0F8B3
:107C1C00040810F4806F06D11B484068194948606D
:107C2C000860194818E01448D0F8040810F4007FD4
:107C3C0006D11648406813494860086013480BE0A9
:107C4C000D48D0F8040810F4807F08D11048406823
:107C5C000C49486008600E48006800F0D9FF0648DF
:107C6C000C49016001F0FCF80648006880470020D0
:107C7C0003B0F0BD108A0008040801405B05002029
:107C8C0000C00008740500200040010800C0010875
:107C9C0000400208BBBB8B884FF6F8710840DFF838
:107CAC00D811086070470000DFF8D82152F8202066
:107CBC0048F68F131A401143DFF8C82142F8201000
:107CCC0070470000DFF8BC2152F8202048F6BF7343
:107CDC001A4011F0100F18BF82F0100211F0200F93
:107CEC001CBF82F0200292B2DFF8981141F82020DC
:107CFC0070470000DFF88C2152F820204BF68F7370
:107D0C001A4011F4805F18BF82F4805211F4005FA6
:107D1C001CBF82F4005292B2DFF8681141F82020A7
:107D2C0070470000DFF85C1151F820104BF68F7291
:107D3C001140DFF8502181F4405142F82010704777
:107D4C00DFF8401151F8201048F68F621140DFF82F
:107D5C00342142F820107047DFF8281151F8201018
:107D6C0011F4804F0CD0DFF81C1151F8201048F69C
:107D7C008F72114041F48041DFF8082142F8201045
:107D8C0070470000DFF8FC1051F8201011F0400F84
:107D9C000CD0DFF8F01051F8201048F68F7211401B
:107DAC0041F04001DFF8DC2042F820107047000061
:107DBC00314A126892B202EBC0002D4A49084900C0
:107DCC0042F81010704700002B4A126892B202EB76
:107DDC00C000284A4908490042F8101070470000BA
:107DEC002549096889B201EBC000214951F81000FE
:107DFC0080B270472049096889B201EBC0001D4967
:107E0C0051F8100080B270471B4A126892B202EB14
:107E1C00C0001B4A42F8101070470000164A126846
:107E2C0092B202EBC000154A02EB40003F2909D385
:107E3C004A0911F01F0F01D1521E92B2910241F466
:107E4C00004106E04A0811F0010F01D0521C92B219
:107E5C0091020160704700000749096889B201EB83
:107E6C00C000064951F810008005800D70470000D5
:107E7C000060004008600040505C00400C60004016
:107E8C0004600040005C00400106090C41EA10202F
:107E9C007047000042F2107291FBF2F303F1300CC8
:107EAC0080F800C003FB121189B24FF47A7291FB77
:107EBC00F2F303F1300C00F801CF03FB121189B27D
:107ECC00642291FBF2F303F1300C00F801CF03FBB9
:107EDC00121189B20A2291FBF2F303F1300C00F873
:107EEC0001CF03FB1211303100F8011F002100F803
:107EFC00011F70470A0F0A2A03D3373200F8012BEF
:107F0C0002E0303200F8012B090109090A0E0A2A95
:107F1C0003D3373200F8012B02E0303200F8012B8A
:107F2C000902090A0A0D0A2A03D3373200F8012B79
:107F3C0002E0303200F8012B0903090B0A0C0A2A63
:107F4C0003D3373200F8012B02E0303200F8012B5A
:107F5C0089B20A0B0A2A03D3373200F8012B02E04C
:107F6C00303200F8012B0905090D0A0A0A2A03D33D
:107F7C00373200F8012B02E0303200F8012BC9B285
:107F8C000A090A2A03D3373200F8012B02E03032F7
:107F9C0000F8012B01F00F010A2903D3373100F847
:107FAC00011B02E0303100F8011B00210170704709
:107FBC0010B5002400210420FDF742FAC04380B222
:107FCC00284902000B88DB431A402DD0264B4FF07A
:107FDC00190C83F800C012F4807F18BF032412F42C
:107FEC00007F18BF042412F4806F18BF052412F40C
:107FFC00006F18BF062412F4805F18BF072412F418
:10800C00005F18BF022412F4804F18BF012412F431
:10801C00004F18BF082412F0080F18BF092412F0E3
:10802C00400F1CD00A241AE00A88104217D00E4ABE
:10803C001278A2B90D4A13788BB910F4806F18BF5F
:10804C00052410F4006F18BF062410F0080F18BF99
:10805C00092410F4004F18BF08240523137008805E
:10806C00200010BDA8050020590500205A0500204D
:10807C00024A118001000320FCF7B0BE6605002007
:10808C002DE9F04782B0040088460025DFF8B0A146
:10809C008021504600F062FF00F0B4F8FF2028EA7F
:1080AC000008C146260040270422494600A800F0DB
:1080BC0039F800983168C943014218BF0125361DB3
:1080CC0009F104097F1EEFD100F08CF88021504695
:1080DC0000F046FF0DB10A2000E0022000F054F839
:1080EC004FEA1840C0B200F04FF84FEA1820C0B267
:1080FC0000F04AF85FFA88F000F046F84FF480750B
:10810C0014F8010BC043C0B200F03EF86D1EF7D15D
:10811C008021504600F022FF00F074F802B0BDE858
:10812C00F0870000F0B581B005000E001400444F3C
:10813C008021380000F012FF00F064F88021380034
:10814C0000F00EFF032000F01FF8300CC0B200F05E
:10815C001BF8300AC0B200F017F8F0B200F014F8B7
:10816C005CB14FF6FF763419A52000F00DF8C04332
:10817C0005F8010BA4B2002CF5D18021380001B018
:10818C00BDE8F04000F0EABEF0B581B005002D4C22
:10819C00002020602C4E124F0221380000F0B4FD5C
:1081AC0030B92068411C2160B042F5D3FF2015E0A6
:1081BC002900380000F0A4FD0020206004E02068B5
:1081CC00411C2160B042F1D20121380000F09CFD2D
:1081DC000028F4D0380000F095FDC0B201B0F0BD1D
:1081EC00003C004010B5164C8021200000F0B8FE79
:1081FC000620FFF7C9FF80212000BDE8104000F0E9
:10820C00ADBE000070B50E4C8021200000F0A8FE21
:10821C000520FFF7B9FF0B4D002028600A4EA52062
:10822C00FFF7B2FF29684A1C2A60B14206D210F04F
:10823C00010FF4D18021200000F090FE70BD0000F1
:10824C00000C01408C050020A186010005484FF46C
:10825C00805181604FF4007141604FF40011016056
:10826C00704700BF680500200D4908587047000092
:10827C0070B504000D0000F0ABFAA1B2084840192B
:10828C0000F0ACF80600210C0448401900F0A6F8E8
:10829C0000EA060400F0A6FA200070BD06380008BB
:1082AC00043800082DE9F14F84B08A46002400A858
:1082BC0047490A7802704A7842700025214601A885
:1082CC00FFF718FE4FF6FF7901A801B523464A4681
:1082DC005146BDF81800FDF70DFC02B0290001A8AD
:1082EC00FFF708FE3B4909785FFA8BF0884220D0F3
:1082FC00384890F800B000260DF10408BDF8107055
:10830C0098F800008DF80000F1B28C4200A801B57D
:10831C0001D15B4600E000234A465146B8B2FDF756
:10832C00E9FB02B0761C083708F10108F0B2082806
:10833C00E6D329480078002844D027480078022842
:10834C003CD0052806D0062818D0082829D00928A2
:10835C002ED034E02000C0F107000006800D25FA75
:10836C0000F111F00F0F04D0012101FA00F02D1AC9
:10837C0025E00F2101FA00F0451920E02000C0F1A2
:10838C0007000006800D25FA00F101F00F010F29FE
:10839C0003D2012101FA00F0EEE70F2101FA00F0FF
:1083AC00E5E7072C02D2641CE4B208E0002406E0E6
:1083BC00200001D0641EF7E7072400E008240648DB
:1083CC0000210170082C89D3280005B0BDE8F08F7E
:1083DC007C8F00085E0500205B05002030B581B065
:1083EC0005000C00144800F063FA052802D0342074
:1083FC0000F042FA2100280000F01CFA042801D1F8
:10840C00012000E0002001B030BD000010B50400D8
:10841C0060050ED1084800F04BFA052802D0342034
:10842C0000F02AFA200000F0E5F9042801D0002021
:10843C0010BD012010BD0000A08601007047000097
:10844C00FEE70000FEE70000FEE70000FEE700008C
:10845C007047000070470000704700007047000034
:10846C007047000070470000704700007047000024
:10847C007047000070470000704700007047000014
:10848C007047000070470000704700007047000004
:10849C0070470000704700007047000070470000F4
:1084AC00704700007047000070470000FFF726B8C7
:1084BC0000F032BC704700007047000070470000AD
:1084CC0070470000704700007047000070470000C4
:1084DC007047000010B52B48002101602A4C207910
:1084EC0018B12079401E207110BD142020712089F4
:1084FC00152803D320891438208100E02181E089DC
:10850C00152807D3E0891438E081E089152810D2AA
:10851C0003200CE06079322803D26079401C607132
:10852C0007E061716089401C608101210420FCF727
:10853C0055FC2078401C207020780C280BD3002090
:10854C002070A179481E8041C00FA071A08910B184
:10855C00A089401EA081607810B16078401E6070C8
:10856C00A07810B1A078401EA070FFF721FD01008B
:10857C0006D0E07014210320FCF730FC3C20E08195
:10858C0010BD00BF100400405805002070470000CB
:10859C0070470000704700007047000070470000F3
:1085AC0070470000704700007047000070470000E3
:1085BC0070470000704700007047000070470000D3
:1085CC0070470000704700007047000070470000C3
:1085DC0070470000704700007047000070470000B3
:1085EC0070470000704700007047000070470000A3
:1085FC007047000070470000704700007047000093
:10860C007047000030B581B0624C22785AB9624D87
:10861C002A685043C4F8140301FB02F0C4F8180391
:10862C000120207001E0012A3BD16068B0B95B48A1
:10863C0001210170584D2A6892B2D4F8141304F138
:10864C001400FBF705FE4022982104F1140000F001
:10865C0089FB28684038606040200BE0402298215C
:10866C00A0680019143000F07DFB60684038606031
:10867C00A0684030A06040210120FFF7C5FB3021ED
:10868C000120FFF71FFBD4F814034030C4F8140387
:10869C00D4F818034038C4F81803414881684039AD
:1086AC008160D4F8180340B96060A060C4F814036A
:1086BC003C48032101700020207001B030BD000047
:1086CC0030B581B0334CE268403223785BB9324B21
:1086DC001B685843C4F81C0301FB03F0C4F82003C7
:1086EC000120207001E0012B3FD1002020612748A0
:1086FC000AE0E168091910F8013B0B752169491C66
:10870C002161E168491CE160E1689142F1D3204D9F
:10871C002888D4F81C134118C4F81C13D4F820234F
:10872C00101AC4F820031C4A1368B0FBF3F202FBC6
:10873C00130080B9E060194801220270C91A04F1D3
:10874C001400FBF783FDD4F81C03A0F5807104F52D
:10875C008A70FBF77BFD124881682A88891A816030
:10876C004FF440510220FFF7C5FAD4F8200318B19A
:10877C000C480078042806D10020E0600121FEF7A7
:10878C0079FD0020207001B030BD00BFE80400204E
:10879C00E6040020900100206C050020B0050020AC
:1087AC00D4040020E4040020DFF8C4100A6802F0AE
:1087BC0038020A600A68104308607047DFF8B0108E
:1087CC000A6810239A430A600A68104308607047CD
:1087DC000348DFF894100160DFF8901001607047D7
:1087EC0004200240DFF88C00016841F08001016038
:1087FC007047000070B5060040F6FF74200000F0D2
:10880C0057F8042814D1DFF86C50286840F00200A7
:10881C0028606E60286840F040002860200000F05E
:10882C0047F8012804D0296841F6FD7211402960EF
:10883C0070BD000070B506000C000F2000F038F879
:10884C0004280FD10B4D286840F0010028603480BB
:10885C000F2000F02DF8012804D0296841F6FE7293
:10886C001140296070BD000023016745AB89EFCD35
:10887C0000200240102002400C49086070470000A4
:10888C000A48016811F0010F01D0012070470168FE
:10889C0011F0040F01D002207047006810F0100F87
:1088AC0001D0032070470420704700000C200240C8
:1088BC0010B50400FFF7E4FF05E03CB100F008F848
:1088CC00FFF7DEFF641E0128F7D004B9052010BDA8
:1088DC0082B000200090FF2001E00098401E009024
:1088EC0000980028F9D102B0704700004448016894
:1088FC0041F00101016041680A4A11404160016880
:10890C00094A1140016001686FF480221140016036
:10891C0040686FF4FE010840394948600846002160
:10892C00816070470000FFF8FFFFF6FE34490A68CB
:10893C006FF480331A400A600A686FF480231A407F
:10894C000A604FF48032801A08D04FF44032801AFB
:10895C0002BF086840F4A02008607047086840F423
:10896C00803008607047000000B581B00020009096
:10897C00312000F02DF80099491C009118B900988D
:10898C00B0F5A06FF4D1312000F022F8401E8041E8
:10899C00C043C00F01B000BD01490860704700BF63
:1089AC006000424209490A6803239A431043086055
:1089BC00704700000548006800F00C00704700008C
:1089CC0001490860704700BFD800424204100240C1
:1089DC004109012902D10A49096805E0022919BF98
:1089EC000749496A0649096A012200F01F0002FA88
:1089FC0000F00840401E8041C043C00F704700008B
:108A0C00001002404861726477617265205665728D
:108A1C002000000053657269616C204E6F3A200093
:108A2C0020202020204453323033204D696E6920A1
:108A3C0044534F2053595320566572202020202038
:108A4C002020202020202000506C65617365206957
:108A5C006E707574206D6173746572206C696365DA
:108A6C006E63653A203030303030303030000000EA
:108A7C0020202020202020204C6963656E63652017
:108A8C00696E707574206572726F722020202020C0
:108A9C00202020202000000020202020202020202A
:108AAC00204C6963656E63652077726974656E200E
:108ABC006F6B202020202020202020202000000070
:108ACC0020202020202020204C6963656E636520C7
:108ADC0077726974656E206572726F722020202027
:108AEC002020202020000000202020202020507555
:108AFC00736820616E79206B657920746F206E65C8
:108B0C0078742073746570202020202020000000D1
:108B1C00024908432C490860704700000000FA0520
:108B2C0070B50378C178002935D02749096801F45C
:108B3C00E061C1F5E061090A9A10DFF86CC05CF8DD
:108B4C0022E003F00303DB004FF0FF0C0CFA03FCF4
:108B5C006FEA0C0404EA0E0E44780D00C5F104050E
:108B6C00AC4085780F2626FA01F1294021430901F2
:108B7C0099400CEA010141EA0E010B4B43F822101B
:108B8C0000784111094A012300F01F0003FA00F09C
:108B9C0042F8210070BD58110549012203F01F0352
:108BAC009A4041F8202070BD00E400E000E100E0B4
:108BBC0080E100E0024A1140084302490860704716
:108BCC0080FFFF1F08ED00E00CED00E030BF7047A8
:108BDC0020BF704740BF7047BFF36F8F7047BFF324
:108BEC004F8F7047BFF35F8F704701DF7047EFF314
:108BFC001480704780F31488BFF36F8F7047EFF3C6
:108C0C000980704780F309887047EFF3088070473C
:108C1C0080F30888704762B6704772B67047EFF3FE
:108C2C001080704761B6704771B67047EFF31380D0
:108C3C00704780F311887047EFF31280704740BA89
:108C4C00704700BA704700008B0707D0521E24BF34
:108C5C0011F8013B00F8013BF6D8704783071ED191
:108C6C00103A07D330B4B1E83810103AA0E83810F5
:108C7C00F9D230BC530724BFB1E80810A0E80810A3
:108C8C0044BF51F8043B40F8043BD20724BF31F8F1
:108C9C00022B20F8022B44BF0B7803707047083A64
:108CAC0007D3B1E80810083A40F8043B40F804CB6D
:108CBC00F7D25307E4E70000028802F441520B8814
:108CCC001A434B881A438B881A43CB881A430B8957
:108CDC001A434B891A438B891A43CB891A43028056
:108CEC00098A0182704700000029018802D041F0F6
:108CFC00400102E04FF6BF72114001807047000046
:108D0C00818170478089704700890140481E8041ED
:108D1C00C043C00F7047000030B581B00D4C0E48F9
:108D2C00016821800D4D21882A88114011F4806F33
:108D3C0005D04FF6FF310160094840688047208814
:108D4C002988084010F4004F18BFFEF7D3FA01B081
:108D5C0030BD00BFAC050020445C0040AE050020D7
:108D6C00B40500200F4B03EB4101521C52100AD0EA
:108D7C0010F8013B10F801CB43EA0C2321F8023B1D
:108D8C00891C521EF4D17047064B03EB4101521C57
:108D9C00521005D051F8043B20F8023B521EF9D179
:108DAC0070470000006000402603530054004D0043
:108DBC006900630072006F0065006C006500630061
:108DCC00740072006F006E00690063007300000095
:108DDC002603530054004D003300320020004D0098
:108DEC006100730073002000530074006F00720068
:108DFC006100670065000000074801210160002147
:108E0C0001600022426003494FF4E0520A80026084
:108E1C0000207047AE050020405C0040C98E000861
:108E2C002404000090010020000000008D8E00083A
:108E3C004C010000808F0008B405002000000000E9
:108E4C0009022000010100C03209040000020806DA
:108E5C005004070581024000000705020240000093
:108E6C000448C0610221017203490162034A426253
:108E7C000868004730050020B40500200C060020CF
:108E8C0009E050F8041B50F8042B51F804CB42F8BD
:108E9C0004CB1B1FF9D150F8043B002BF1D17047C8
:108EAC0010B50448044C02E050F8041B8847A0425B
:108EBC00FAD110BD288E00084C8E0008002305E066
:108ECC0050F8041B41F8043B121FFBD150F8042B43
:108EDC00002AF5D17047000000F046F8002801D0B8
:108EEC00FFF7DEFF0020FEF7BFFD00F03FF80000AB
:108EFC0080B504490868002803D00220ABBE0020CE
:108F0C00086001BDA0050020120100020000004015
:108F1C0083042057000201020301000080B5FFF713
:108F2C00E7FF02491820ABBEFCE7C0462600020052
:108F3C0010035300540020004D00610073007300B7
:108F4C0007463846FFF7EAFFFBE70000312E3532C3
:108F5C0000000000FEF776B8FEF79AB80161704782
:108F6C00416170470403090401207047FFF7E8BF13
:108F7C003000000021780008597800087979000841
:108F8C007D79000881790008C5790008157A0008F8
:108F9C001D7A0008297A0008357A000800000000C4
:108FAC0040000000708F000804000000B48D000821
:108FBC0026000000DC8D000826000000540600206E
:108FCC001A0000003C8F000810000000E54D00085E
:108FDC002D790008E54D0008E54D0008E54D000829
:108FEC0055790008E54D0008E54D00086D7900083D
:108FFC0000800202200000004D696E695F44534FEF
:10900C00466C617368204469736B202020202020FB
:10901C00200000001A03530054004D0033003200AE
:10902C0031003000000000000000000000000000D3
:10903C00618F0008E54D0008E54D0008E54D00087E
:10904C00E54D0008E54D0008E54D0008E54D00082C
:10905C00658F0008E54D0008E54D0008E54D00085A
:10906C00E54D0008E54D0008000000000000000080
:10907C0056322E363000000056332E3130000000B0
:10908C00700000000000000A00000000000000005A
:10909C0000000000000000080000000002000000BA
:1090AC00148F0008120000004C8E000820000000F5
:1090BC000006000000000000030100000300000097
:0400000508008EE57C
:00000001FF
